S01F00002E2F67725F6275696C642F6B7572756D695F736B657463682E6D6F7410
S1050000468232
S1130004567E627E6E7E7A7E867E927EB87EC47EC4
S1130014EA7E107F367F5C7F687F747F9A7FC07F1F
S1130024E67F0C80328058807E808A80C680D280AD
S1130034DE8004812A815081FFFFFFFFFFFF5C8182
S11300448281A881CE81DA81E681F281FE810A82ED
S11300541682FFFFFFFFFFFFFFFF2282FFFF2E82B6
S1130064FFFFFFFFFFFFFFFFFFFFFFFFFFFFFFFF98
S10F0074FFFFFFFFFFFFFFFFFFFF3A82CA
S10700C0EFFFE885DD
S10D00C4000000000000000000002E
S10700D8EC4682006C
S11300DC0000000000000000000000000000000010
S11300EC0000000000000000000000000000000000
S11300FC00000000000000000000000000000000F0
S113010C00000000000000000000000000000000DF
S113051C0000180017001600FF00FFFFFFFF204E1D
S113052C0000000062932C77000000000000000023
S113053C00000000000000000000000000000000AB
S113054C00000000FFFF000000000000020000009B
S113055C0000CEAFCEAFD2AFD2AFD6AFD6AFDAAFFC
S113056CDAAFDEAFDEAFE2AFE2AFE6AFE6AFEAAFF3
S113057CEAAFEEAFEEAFF2AFF2AFF6AFF6AFFAAF63
S113058CFAAFFEAFFEAF02B002B006B006B00AB0CE
S113059C0AB00EB00EB012B012B016B016B01AB03B
S11305AC1AB01EB01EB022B022B026B026B02AB0AB
S11305BC2AB02EB02EB032B032B036B036B03AB01B
S11305CC3AB03EB03EB042B042B046B046B04AB08B
S11305DC4AB04EB04EB052B052B056B056B05AB0FB
S11305EC5AB05EB05EB062B062B066B066B06AB06B
S11305FC6AB06EB06EB072B072B076B076B07AB0DB
S113060C7AB07EB07EB082B082B086B086B08AB04A
S113061C8AB08EB08EB092B092B096B096B09AB0BA
S113062C9AB09EB09EB0A2B0A2B0A6B0A6B0AAB02A
S113063CAAB0AEB0AEB0B2B0B2B0B6B0B6B0BAB09A
S113064CBAB0BEB0BEB0C2B0C2B0C6B0C6B0CAB00A
S113065CCAB0CEB0CEB0D2B0D2B0D6B0D6B0DAB07A
S113066CDAB0DEB0DEB0E2B0E2B0E6B0E6B0EAB0EA
S113067CEAB0EEB0EEB0F2B0F2B0F6B0F6B0FAB05A
S113068CFAB0FEB0FEB002B102B106B106B10AB1C5
S113069C0AB10EB10EB112B112B116B116B11AB132
S11306AC1AB11EB11EB122B122B126B126B12AB1A2
S11306BC2AB12EB12EB132B132B136B136B13AB112
S11306CC3AB13EB13EB142B142B146B146B14AB182
S11306DC4AB14EB14EB152B152B156B156B15AB1F2
S11306EC5AB15EB15EB162B162B166B166B16AB162
S11306FC6AB16EB16EB172B172B176B176B17AB1D2
S113070C7AB17EB17EB182B182B186B186B18AB141
S113071C8AB18EB18EB192B192B196B196B19AB1B1
S113072C9AB19EB19EB1A2B1A2B1A6B1A6B1AAB121
S113073CAAB1AEB1AEB1B2B1B2B1B6B1B6B1BAB191
S113074CBAB1BEB1BEB1C2B1C2B1C6B1C6B1CAB101
S113075CCAB1D4B100007EB3BAB3F6B30000000042
S113076C0000000000000000000000000000000079
S113077C000000000000000000006C3400000000C9
S113078C0000000000000000000000000000000059
S113079C0000000000000000000000000000000049
S11307AC0000000000000000000000000000000039
S11307BC0000000000000000000000000000010028
S11307CC0000000000000E33CDAB34126DE6ECDEFD
S11307DC05000B00000000000000000000000000F9
S11307EC00000000000000000000000000000000F9
S11307FC00000000000000000000000000000000E9
S113080C00000000000000000000000000000000D8
S113081C00000000000000000000000000000000C8
S113082C00000000000000000000000000000000B8
S113083C00000000000000000000000000000000A8
S113084C0000000000000000000000000000000098
S113085C0000000000000000000000000000000088
S113086C0000000000000000000000000000000078
S113087C0000000000000000000000000000000068
S113088C0000000000000000000000000000000058
S113089C0000000000000000000000000000000048
S11308AC0000000000000000000000000000000038
S11308BC0000000000000000000000000000000028
S11308CC0000000000000000000000000000000018
S11308DC0000000000000000000000000000000008
S11308EC00000000000000000000000000000000F8
S11308FC00000000000000000000000000000000E8
S113090C00000000000000000000000000000000D7
S113091C00000000000000000000000000000000C7
S113092C00000000000000000000000000000000B7
S113093C00000000000000000000000000000000A7
S113094C0000000000000000000000000000000097
S113095C0000000000000000000000000000000087
S113096C0000000000000000000000000000000077
S113097C0000000000000000000000000000000067
S113098C0000000000000000000000000000000057
S113099C0000000000000000000000000000000047
S11309AC0000000000000000000000000000000037
S10509BC000035
S1133000313241646166727569745F4746580000E5
S1133010CE3200300631000010304B3C2A51ECB760
S1133020CE34E6362F3733367837D13703380C337E
S11330303230323041646166727569745F4C454464
S11330404261636B7061636B00323241646166722A
S11330507569745F4269636F6C6F724D61747269F4
S113306078001C344930000002002E30021A00009F
S1133070103002000000000062304B3C2A515B3EDD
S1133080CE34E6362F3733367837D1370338002A33
S113309000474F2100232323232323232323230017
S11330A03A00CE32A83006313653747265616D0031
S11330B03134486172647761726553657269616C19
S11330C00000CE32B030A2300000C23043492A5151
S11330D08E48F048B348634A0C33DC303950726987
S11330E06E7461626C650039495041646472657341
S11330F07300CE32E730D8300000F23046503550FD
S113310072696E7400000C33FE300201E00021FF8E
S113311031004100510001FF0402E00021FF3100B1
S11331204100510001FF0100E00023FF3300430090
S1133130530003FF4006010021FF3100410051000C
S113314001FF0201E00023FF33004300530003FFAB
S11331502005020021FF31004100510001FF010060
S1133160070021FF31004100510001FF0100E00090
S113317020FF30004000500000FF0201E00020FF6B
S113318030004000500000FF0803040021FF31001C
S11331904100510001FF1004030021FF31004100F0
S11331A0510001FF0402E00027FF370047005700E9
S11331B007FF0201E00027FF37004700570007FF21
S11331C00100E00027FF37004700570007FF040213
S11331D0E00022FF32004200520002FF0803E00038
S11331E022FF32004200520002FF1004E00022FFDE
S11331F032004200520002FF2005E00022FF3200AC
S11332004200520002FF4006E00022FF320042006A
S1133210520002FF8007E00022FF32004200520009
S113322002FF8007E0002EFF3E004E005E000EFF0E
S11332300100E0002CFF3C004C005C000CFF800708
S1133240E00021FF31004100510001FF0201E000D4
S113325025FF35004500550005FF0100E00025FF6E
S113326035004500550005FF36536446696C65001A
S1133270CE326832063100007032706D2A513754F4
S1133280776F576972650000CE327E32A23000003B
S113329088324B76DE7576758D75B775DD754E3172
S11332A0305F5F637878616269763132305F5F7373
S11332B0695F636C6173735F747970655F696E666F
S11332C06F450000CE329E3202330000C4321884AF
S11332D0308464AB67AB9C8B6A8A3E865A84A9852A
S11332E04E31305F5F637878616269763131375F80
S11332F05F636C6173735F747970655F696E666F29
S11333004500CE32E032D83300000233EF8A078B17
S113331064AB67AB9C8B6A8A318B258CD98A7374B6
S1133320643A3A657863657074696F6E00737464A7
S11333303A3A6261645F657863657074696F6E00C0
S1133340537439657863657074696F6E00000C336B
S11333504033537431336261645F657863657074BC
S1133360696F6E00CE3252334E334E31305F5F633D
S11333707878616269763131355F5F666F72636553
S1133380645F756E77696E6445000C336A334E3141
S1133390305F5F637878616269763131395F5F6687
S11333A06F726569676E5F657863657074696F6E67
S11333B045000C338E3300004E33AEA8CCA8C2A80F
S11333C000006433B8A8E4A8C7A8537439747970AA
S11333D0655F696E666F00000C33CA330000D83332
S11333E05AAB6DAB64AB67AB85AB6AAB4E31305F48
S11333F05F637878616269763132315F5F766D69D7
S11334005F636C6173735F747970655F696E666F17
S11334104500CE32EC33023300001234CAABE2ABC7
S113342064AB67AB9C8B6A8AA4B496AD0CAC707524
S11334307265207669727475616C206D6574686F4D
S1133440642063616C6C65640A0064656C65746512
S113345064207669727475616C206D6574686F643C
S11334602063616C6C65640A0000D4B14300000001
S1133470FF031101040001010501007F00007D002C
S11334800000000000000000FF030D010200010124
S11334900000000000000000FF030D010400010112
S11334A0000100000000000000000000FFFFFE45D6
S11334B0C64F10511D5F375F515F745F8E5FA85F09
S11134C0C25F2B604C601E770000FFFF00000F
S11334CE61EFC1C3C561CF200EA81C16A82027BD6D
S11334DEF244000071FF61C8ECEF3400F626F2BD31
S11334EEF2A81A16A81E27BDF044000071FF61C889
S11334FEEC073500F626F0BDF0E6B80CADF246F05A
S113350E71FF7177F161F3EC203500F6B80CEC38ED
S113351E3500A81EB80AA820B81EA80AB820A81AF2
S113352EB80AA81CB81AA80AB81CA81EBDF0A81A76
S113353E46F071FF7177F161E3EC633500A81CB8B6
S113354E0AA820B81CA80AB820A81AB80AA81EB837
S113355E1AA80AB81EA81A16A81E27BDEAA81C1671
S113356EA82027BDE844000071FF61C8EC83350034
S113357EF626E8BDE88DEB317A9DF0CDF100ADF085
S113358E06EA311FBDECA820BDF0A81C46F071FF61
S113359E7177F161C8ECAC3500E6ECAF350030FF65
S11335AEFFB808A81EBDF0A81A46F071FF7177F196
S11335BE61F3EC293600A818BDF0FAF0ABBDF2A801
S11335CE0C44000061F8ECE63500ADF0B800A81C20
S11335DEB802A81AECF03500A818B800A81AB80258
S11335EEA81CB804A822B806FAF2AC04BDF0DAF0AE
S11335FE61DAADEC26E8BDEC44000071FF61C8EC65
S113360E1F3600A80816A81C07B81CADEC06EABDA8
S113361EECFBF8FF61791AECB13500100E61EFC4C2
S113362EC2C061CFD761EFC1C3C561CF200AA81450
S113363EBDEAA816BDECA81EBDE8FAEAABBDF0AD16
S113364EEAB800ADECB802A818B804A81AB806ADCA
S113365EE8B808FAF0AC0ABDF2DAF261DAFAEAABCB
S113366EBDF0ADEAB800ADECB802A81C16A8180758
S113367EB1B804A81AB806ADE8B808FAF0AC0ABD99
S113368EF2DAF261DAFAEAABBDF0ADEAB800ADEC0B
S113369EB802A818B804A81CB806ADE8B808FAF021
S11336AEAC08BDF2DAF261DAFAEAABBDF0ADEAB813
S11336BE00A81A06ECB1B802A818B804A81CB806DB
S11336CEADE8B808FAF0AC08BDF2DAF261DA100A25
S11336DE61EFC4C2C061CFD761EFC161CF200CA826
S11336EE12BDF4A814BDF2A816BDF0ADF4BDE8FAEF
S11336FEE8ABBDF6ADF4B800ADF2B802ADF0B80467
S113370EADF2B806A81806F0B1B808A81AB80AFAA5
S113371EF6AC06BDF2DAF261DA100C61EFC061CFDD
S113372ED761EFC161CF200CA812BDF4A814BDF26D
S113373EA816BDF0ADF4BDE8FAE8ABBDF6ADF4B82D
S113374E00ADF2B802ADF0B804A81806F2B1B8068E
S113375EADF0B808A81AB80AFAF6AC06BDF2DAF259
S113376E61DA100C61EFC061CFD761EFC1C3C561DF
S113377ECF200AA814BDEAA816BDECA81A06ECBD03
S113378EE8ADEC46E871FF7177E961C8ECC7370024
S113379EFAEAABBDF0ADEAB800ADECB802A818B8C1
S11337AE04A81CB806A81EB808FAF0AC08BDF2DAD4
S11337BEF261DAA6ECEC8F3700100A61EFC4C2C0D6
S11337CE61CFD7200CA810BDF0BDF4FAF4ABBDF256
S11337DEADF0B800F6B802F6B804FAF0AC08B806C4
S11337EEAC0AB808A812B80AFAF2AC0EBDF2DAF2B4
S11337FE61DA100CD7D7A804BDF0A806BDF4A8084A
S113380EBDF2DAF0F6780200301A30780000ADF42A
S113381E780400ADF2780600ADF4780800ADF278C5
S113382E0A00F1481500F6780C00F6780E00E1480F
S113383E140030FFFF78120030FFFF781000E148CB
S113384E1600F1481700F6781800D761EFC1C3C50A
S113385E61CF2024A82EBDF488349DECFAF4AC1864
S113386EBDF644000061E8EC6D3A00FAF4AC08BD14
S113387EF2A83046F271FF7177F361C8EC413C0057
S113388EFAF4AC0ABDF2A83246F271FF7177F36115
S113389EC8EC413C00883A705100BDE80106E801CD
S11338AEBDF0A83006F044000071FF61E3EC413C2A
S11338BE00ADE8313DBDF0A83206F044000071FFC2
S11338CE61E3EC413C00EAF48A17D161E8ECEA3892
S11338DE004AECAF61E3ECEA3800A4EC8DEC31293C
S11338EE9DF08DEC768DF0610E9DECA830BDF0B898
S11338FE12040600B81AADF0B8108830768810613C
S113390E2E9DF04AF00561F8EC2C39008830768D46
S113391EEC612E768810610E9DEAEC2E3900F4EAE5
S113392EA832B814B816F4EB8DEA5C019DF0D4F00D
S113393E61F8ECB73900ADF4BDF6FAF6ABBDF0881C
S113394E3A4C0161E8EC7F3900ADF4B800A810B828
S113395E02A816B804A836B806FAF0AC04BDF08D69
S113396EF4980D8DF5980CADF0BDF6DAF6ECFA3947
S113397E00ADF4B800A812B802A814B804ADE8B8A3
S113398E06B808A836B80AFAF0AC0EBDF08DF49855
S113399E0D8DF5980CADF0BDF6DAF661DA880D9D55
S11339AEF4880C9DF5EC343A00A83616A838476115
S11339BEF8EC343A00ADF4BDF2FAF2ABBDF0883A4D
S11339CE4C0161E8EC003A00ADF4B800A810B8025E
S11339DEA816B804A838B806FAF0AC04BDF08DF4F5
S11339EE980D8DF5980CADF0BDF2DAF261DAECAB10
S11339FE3900ADF4B800A812B802A814B804ADE8A2
S1133A0EB806B808A838B80AFAF0AC0EBDF08DF4B2
S1133A1E980D8DF5980CADF0BDF2DAF261DA880CE2
S1133A2E9DF5880D9DF4A4EB8DEA311A9DEAA81438
S1133A3E06E8B814FBF8FF6179164AEB0861E8EC66
S1133A4E363900A81206E8B812FBF8FF617910A8FF
S1133A5E1A16A8104761E8EC083900EC413C00FA4C
S1133A6EF68DEC2E049DECCDED00ADEC313DBDECB0
S1133A7EAC0206ECBDF0ABB818ADF0BDF6FAF6AB81
S1133A8EB8108C0298148C03981D8C059DF68C0628
S1133A9E9DED883A4C0161E3ECB63A008DF6318F18
S1133AAEBDF28DED318FB81A883A705100BDE88D94
S1133ABEF3708DE8D6609DF0D8E88DF2D6BDF2761F
S1133ACE8DF0610E9DF3A83006F2B81EF4EC8DEC69
S1133ADE9DEA8DF6318FB822881D768DEA614E618E
S1133AEEC8EC413C008DEA705100B816A81A16A80D
S1133AFE1607BDF08DF1708DE8D6609DF28DE970DC
S1133B0E8DF0D6609DF18DF1768DF2610E9DF2D819
S1133B1EE88DF0D6BDF0768DF2610E9DF1A83206D9
S1133B2EF0B820A81EB812C9F600008DF6768DECFA
S1133B3E610E9DF088144BF661E3EC323C005AF0B2
S1133B4E0761E8EC683B00A81016A81807BDF2FA46
S1133B5EF28B9DEBFBF8FF6179108DEBD171FF6158
S1133B6EC8EC203C00ADF4BDF2FAF2ABBDF0883ADD
S1133B7E4C0161E8ECDC3B00ADF4B800A82216A8B9
S1133B8E300706F6B8028DED318FBDF2A83206F27B
S1133B9EBDF2A81606F2B804A836B806FAF0AC04BC
S1133BAEBDF08DF4980D8DF5980C8DF6980F8DF75C
S1133BBE980EADF0BDF2DAF261DA880D9DF4880C40
S1133BCE9DF5880F9DF6880E9DF7EC203C00ADF414
S1133BDEB800A812B802A820B804ADE8B806B80810
S1133BEEA836B80AFAF0AC0EBDF08DF4980D8DF52A
S1133BFE980C8DF6980F8DF7980EADF0BDF2DAF2A3
S1133C0E61DA880E9DF7880F9DF6880C9DF5880D58
S1133C1E9DF48DEB61019DEBA6F6A81206E8B81291
S1133C2EEC393B008DEC768814610E9DECA4EAEC25
S1133C3EE63A00102461EFC4C2C061CFD761EFC170
S1133C4EC3C561CF2010A81ABDE8881C9DF6FAE8FA
S1133C5EAC18BDF244000061E8EC1C3D004AF60AC3
S1133C6E61E8EC923C00FAE88C14705100313DBDD1
S1133C7EF0EAE8AA0E06F0BA0EDAE8ADF2780C0015
S1133C8EEC423E004AF60D61F8EC423E00FAE88C36
S1133C9E149DF7EAE88A16D161F8ECE93C008DF739
S1133CAE705100BDF40106F401BDF0FAE8AC0C0647
S1133CBEF0BDEAAC08BDF0ADEA46F071FF7177F1E4
S1133CCE61D8ECE93C00DAE8ADF2780C00ADF431E1
S1133CDE3DBDF4EAE8AA0E06F4BA0EADE8B800FA51
S1133CEEE8AC0CB802AC0EB8048DF69806AC10B85D
S1133CFE08AC12B80A8DF7980CFC593800FAE88C07
S1133D0E14705100BDF00106F001EC383E004AF685
S1133D1E0A61E8EC3F3D00DAE8F6780C008C067098
S1133D2EEAE88A14D6BDF0AA0E06F0BA0EEC423EAC
S1133D3E004AF60D61F8EC423E00FAF28C049DEA5C
S1133D4E8DF64BEA61D8EC423E00FAF24E0561F371
S1133D5EEC423E008DEA768DF6612E9DEACDEB00A7
S1133D6EADEA313DBDEAFAF2AC0206EABDEAFAEA80
S1133D7E8C029DECFAEA8C039DF0D4EC61F8EC30E5
S1133D8E3E00D4F061F8EC303E00FAEA8C059DF06A
S1133D9EFAE88C149DF4EAE88A16D161F8EC0E3E2A
S1133DAE008DF0318FCDED0006ECBDF08DF4705129
S1133DBE00B80E880E9DF78DF1708DF7D6609DF5C7
S1133DCED8F08DF7D6BDF0768DF5610E9DF1FAE83B
S1133DDEAC0C06F0BDECAC08BDF0ADEC46F071FFDA
S1133DEE7177F161D8EC0E3E00DAE8F6780C00D863
S1133DFEF4FAF28C06D6BDF0EAE8AA0E06F0BA0E74
S1133E0EADE8B800FAE8AC0CB802AC0EB8048DF606
S1133E1E9806AC10B808AC12B80A8DF4980CFC597C
S1133E2E38008C1470EAEA8A04D6BDF0EAE8AA0CCB
S1133E3E06F0BA0CC9F00100101061EFC4C2C061E3
S1133E4ECFD7A804BDF0FAF08C159DF0D761EFC161
S1133E5EC361CF2004A80CBDE8A812BDEAA8104483
S1133E6E070061F3EC584000A80E44070061F3EC20
S1133E7E584000ADE8B800FC503E004AF00261F82C
S1133E8EECB93E004AF00361F8ECCD3E004AF00175
S1133E9E61E8ECDE3E00A8101630070027B802A831
S1133EAE0EB810A802B80EECDE3E00A80E163007AF
S1133EBE0027B80EA8101630070027ECDC3E00A829
S1133ECE0E1630070027B802A810B80EA802B810B4
S1133EDEADEA44030061E8EC393F00A81001BDF0DF
S1133EEEADE806F0BDE8A80E040800BDF08DF0762E
S1133EFEE68696DD05311D96DFFBBDF08DF09DF255
S1133F0E7AF2FF8DF19DF37AF3FF880E76E68696AC
S1133F1EDD05311D96DFFBBDF4EAE88A1A6BF49DCC
S1133F2EF08A1B6BF59DF1EC8E3F0044010061E8B5
S1133F3EECA23F00A81001BDF0ADE806F0BDE8A864
S1133F4E0E040800BDF08DF076E68696DD05311D73
S1133F5E96DFFBBDF0EAE88A1A6BF09DF28A1B6BC2
S1133F6EF19DF3880E76E68696DD05311D96DFFB10
S1133F7EBDF48DF49DF07AF0FF8DF59DF17AF1FF8D
S1133F8EDAE88DF25BF0481A008DF35BF1481B0002
S1133F9EEC58400044020061E8ECF73F00A8100121
S1133FAEBDF0ADE806F0BDE8A80E040800BDF48D22
S1133FBEF476E68696DD05311D96DFFBBDF4880E9C
S1133FCE76E68696DD05311D96DFFBBDF28DF46B2C
S1133FDEF29DF08DF56BF39DF1EAE88A1A6BF09A77
S1133FEE1A8A1B6BF1EC56400044000061E8EC5851
S1133FFE4000A81001BDF0ADE806F0BDE8A80E041F
S113400E0800BDF48DF476E68696DD05311D96DF47
S113401EFBBDF4880E76E68696DD05311D96DFFB34
S113402EBDF08DF46BF09DF28DF56BF19DF38DF279
S113403E9DF07AF0FF8DF39DF17AF1FFEAE88A1A8A
S113404E5BF09A1A8A1B5BF19A1B100461EFC2C0D3
S113405E61CFD72004A808BDF0BDF4FAF4ABBDF2CD
S113406EADF0B800880A9802ADF2BDF4FAF4ABBD17
S113407EF2FAF261FA1004D72004A808BDF0BDF4D8
S113408EFAF4ABBDF2ADF0B800880A9802ADF2BDF9
S113409EF4FAF4ABBDF2FAF261FA1004D72004304C
S11340AE38BAB800A808BDF0FAF08C109802FCD704
S11340BE76003038BAB800880A9DF04AF00F61E3F2
S11340CEECD54000CDF00F6AF0E08DF0705100B8E1
S11340DE02FC8640003038BAB800FC0E770010049B
S11340EED761EFC161CF2004880C9DE83038BAB88F
S11340FE00A80ABDF0FAF08C109802FCD776004A9C
S113410EE80361E3EC184100F4E83038BAB8008DE6
S113411EE870510001BDF28DF26C819DF08DF39D1E
S113412EF1ADF0B802FC8640003038BAB800FC0E8F
S113413E7700100461EFC061CFD761EFC161CF206A
S113414E04A80ABDE8DAE8880C4810003038BAB87A
S113415E00FCC676003038BAB800FAE88C10980223
S113416EFCD776003038BAB800302100B802FC868D
S113417E40003038BAB800FC0E7700ADE8B800F154
S113418E9802FCEF4000ADE8B800510F9802FCAB6A
S113419E4000100461EFC061CFD7C9F00000A8043D
S11341AE06F0BDF4DAF4F6780000A6F0A6F0ADF051
S11341BE44100061E8ECAC4100D761EFC161CF203F
S11341CE06A80CBDE8B800300800B802300800B8E4
S11341DE04FC043800DAE8307A3078000010066106
S11341EEEFC061CFD761EFC1C361CF20063038BABB
S11341FEB800A80E041000BDF0FAF08B9802FCD79C
S113420E76003038BAB800F19802FC4B7600A80E4E
S113421EB804CDEA083038BAB800A804BDF0FAF0F4
S113422E8B9DE8F4E9ADE8B802FC6140003038BA81
S113423EB800A804BDF0FAF08C01705100B802FC6D
S113424E614000B4EAA804040200B8048DEA4BE904
S113425E61E8EC2342003038BAB800FC0E77001047
S113426E0661EFC2C061CFD761EFC1C3C561CF2074
S113427E0851029800FC715E00ADF0BDE8AF38B491
S113428EBDF0ADE846F071FF7177F161C8ECB6424E
S113429E00F6BF3AB4F6BF3CB4A232B48F94AF98D2
S11342AE00F19802FCA35D00AF38B4BDF0ADE84652
S11342BEF071FF7177F161E3ECF644008F94AF98DF
S11342CE00E19802FCA35D00AF3AB4BDEAAF3CB482
S11342DEBDECADEA049BFFBDF0ADEC61D8A104FFCB
S11342EEFFBDF2ADF2440000ADF061F844C60061CA
S11342FEE3EC514300ADEA046FFEBDF0ADEC61D8C2
S113430EA104FFFFBDF2ADF2440000ADF061F8442C
S113431EC60061E3EC594300ADEA0443FDBDF0ADC4
S113432EEC61D8A104FFFFBDF2ADF2440000ADF084
S113433E61F844C60061E3EC614300F6BF3EB4ECA1
S113434E2E4500C9EAFFFFEC654300C9EA0100EC03
S113435E654300C9EA0000F6BF3AB4F6BF3CB4AFF9
S113436E3EB4B8060440B4BDF0DAF08DEA4800005D
S113437EA80644010061F8ECD44300443B0061F804
S113438EEC19440044000061E8ECC844008F96AF79
S113439E9800E19802FCA35D00ADEA44FFFF61E8DA
S11343AEEC364500A8060440B4BDF0DAF0F148003E
S11343BE00FBF8FF617906A806443E0061E8ECB202
S11343CE4300ECF34400ADEA44FFFF61F8ECE7432D
S11343DE00F6BF3EB4EC364500300200BF3EB48F4B
S11343EE96AF9800F19802FCA35D0030CEB4B800ED
S11343FE308E30B802FC38520030CEB4B800308F54
S113440E30B802FCCD5100ECF6440030CEB4B80006
S113441EADEAB802300A00B804FC0354008F46B467
S113442E3139768F49B4610E9DF48F47B4610176AC
S113443E8F48B4610E6101768DF4610E9DF48F4246
S113444EB4318F01BDF08F43B4318FBDF2ADF006A0
S113445EF201BDF08DF0768F44B4610E31199DF0EA
S113446E3129768DF0610E768DF4610E9F35B48F01
S113447E50B43139768F53B4610E9DF18F51B461BE
S113448E01768F52B4610E6101768DF1610E9DF14C
S113449E8F4DB43119768F4EB4610E31199DF031B2
S11344AE29768DF0610E768DF1610E9F34B4E6BFE0
S11344BE36B4F6BF3EB4ECF6440030CEB4B800AD1C
S11344CEEAB802300A00B804FC035400ADEA44FF13
S11344DEFF61E8ECF3440030CEB4B800308E30B84F
S11344EE02FC385200A23EB4AF38B446E861E8ECA0
S11344FE364500ADE844000061E8EC254500AF3ACE
S113450EB4040100BF3AB4AF3CB461D8A1040000B6
S113451EBF3CB4EC36450044010061E8EC3645007E
S113452EF6BF3AB4F6BF3CB4ADE8BF38B410086178
S113453EEFC4C2C061CFD761EFC1C3C561CF20063E
S113454E30CEB4B8003000C2B802E6B804FC234E34
S113455E0030CEB4B800309130B802FC385200C9E5
S113456EEC96AFFAEC8B9800E19802FC095B00C95B
S113457EEA94AFFAEA8B9800E19802FC095B00C951
S113458EE892AFFAE88B9800E19802FC095B0051BF
S113459E029800F19802FC095B00FAEC8B9800E19A
S11345AE9802FCA35D00FAEA8B9800E19802FCA342
S11345BE5D00FAE88B9800E19802FCA35D00309848
S11345CEB4B80051709802FC4841003098B4B80059
S11345DEFCA841003098B4B800FCF3410030764298
S11345EEB800FCD45600100661EFC4C2C061CFD728
S11345FE2002307EB4B800FCC841001002D761EF2F
S113460EC1C3C561CF200AAF32B4BDF08DF05C07D3
S113461E9DE88DF15C809DE9ADE844000071FF6179
S113462EC8EC434600B6E88DE86CF89DF0CDF1FF7A
S113463EADF0A1BDE8C9EC000030070026ECBDEAE0
S113464EADEC46E861E8EC7E4600307EB4B800ADD1
S113465EECB802F6B804E6B806FC5B3E00307EB455
S113466EB800ADEAB802300700B804E6ECA0460084
S113467E307EB4B800ADECB802F6B804F6B806FC59
S113468E5B3E00307EB4B800ADEAB802300700B825
S113469E04F6B806FC5B3E00A6ECADEC44080061E3
S11346AEE8EC474600C9E80000C9EC0100ADE80497
S11346BE40B4BDEAADEC313DBDF0ADEC01B8080639
S11346CEF0BDF0ADEA06F004F7FF1489D161F8EC01
S11346DEF54600307EB4B800ADE8B802ADECB804CF
S11346EE300200EC034700307EB4B800ADE8B802E7
S11346FEADECB804F6B806FC5B3E00A6ECADEC449B
S113470E070061E8ECC24600A6E8ADE84404006187
S113471EE8ECB74600C9EC0100ADE80440B4BDEACC
S113472EADEC313DBDF0ADEC01B80806F0BDF0AD19
S113473EEA06F004F8FF1489D161F8EC6147003001
S113474E7EB4B800ADE8B802ADECB804300300ECAA
S113475E6F4700307EB4B800ADE8B802ADECB804D3
S113476EF6B806FC5B3E00A6ECADEC44070061E82F
S113477EEC2E4700A6E8ADE844080061E8EC2347B8
S113478E00307EB4B800F6B802E6B804F6B806FCFB
S113479E5B3E00307EB4D576B461F8ECBE4700B80B
S11347AE00300500B802300600B804E6ECCB470032
S11347BEB800300500B802300600B804F6B806FC9E
S11347CE5B3E00307EB4D577B461F8ECEE4700B8AA
S11347DE00300600B802300600B804E6ECFB4700D1
S11347EEB800300600B802300600B804F6B806FC6D
S11347FE5B3E003098B4B800FCF34100306400B85E
S113480E00F6B802FCAC5900AF36B444000061F8AF
S113481EEC844800F6BF36B430CEB4B800308E30D7
S113482EB802FC38520030CEB4B800309530B8021D
S113483EFC38520030CEB4B8008F34B49802300A2B
S113484E00B804FC80540030CEB4B80030A030B8A8
S113485E02FCCD510030CEB4B8008F35B49802307E
S113486E0A00B804FC9E540030CEB4B80030953023
S113487EB802FC385200100A61EFC4C2C061CFD72F
S113488EA804BDF0FAF0AC0CBDF0FAF0AC40BDF2E9
S113489EFAF0AC42BDF0ADF226F0BDF28DF25C3F03
S11348AE9DF0F4F1D7A804BDF0FAF0AC0CBDF0FA0B
S11348BEF0AC40BDF4FAF0AC42BDF2ADF446F26198
S11348CEF8ECEB4800FAF0AC42BDF2ADF006F2BDE6
S11348DEF2FAF28B705100BDF0ECEF4800C9F0FF14
S11348EEFFD7A804BDF0FAF0AC0CBDF2FAF2AC405E
S11348FEBDF4FAF2AC42BDF0ADF446F061F8EC3E14
S113490E4900FAF2AC42BDF0ADF206F0BDF4FAF491
S113491E8B705100BDF0EAF2AA42A1BDF68DF65C91
S113492E3F9DF4F4F5DAF2ADF4784200EC4249001E
S113493EC9F0FFFFD761EFC161CFA806BDF2FAF24D
S113494EAC0EBDF0EAF0AA40A1BDF68DF65C3F9D1B
S113495EF4F4F5FAF0AC42BDF6ADF446F661F8ECBB
S113496E614900717BFAFAF0AC40BDF6ADF006F683
S113497EBDF6DAF68808480000FAF2AC0EBDF0DA9D
S113498EF0ADF47840008C109DE8D4E861E8ECD3E7
S113499E4900AF0001BDF68DF65C409DF48DE89D97
S11349AEF5ADF444000061E8EC564A00715BE1FA9F
S11349BEF0AC42BDF4ADF006F4BDF4FAF48B9F10E6
S11349CEFFEC3A4A004AE80161E8EC0D4A00AF04F4
S11349DE01BDF68DF65C409DF4F4F5ADF444000093
S11349EE61E8EC564A00710BE2FAF0AC42BDF4AD4C
S11349FEF006F4BDF6FAF68B9F44FFEC3A4A00AF8C
S1134A0E4001BDF68DF65C409DF4F4F5ADF4440022
S1134A1E0061E8EC564A00710BE1FAF0AC42BDF4C9
S1134A2EADF006F4BDF4FAF48B9F48FFFAF2AC0E27
S1134A3EBDF2EAF2AA42A1BDF48DF45C3F9DF0F4FE
S1134A4EF1DAF2ADF0784200717AFAC9F001006140
S1134A5EEFC061CFD761EFC1C3C561CFA80ABDF660
S1134A6EFAF6AC0EBDE8FAE8AC40BDEAAC42BDECD9
S1134A7EADEA46EC61E8EC744A00FAF68C109DF649
S1134A8ED4F661E8ECB24A00AF0001BDF08DF05CE3
S1134A9E609DF4F4F5ADF444000061E8EC964A0030
S1134AAEECEF4A004AF60161E8ECD74A00AF040184
S1134ABEBDF08DF05C609DF2F4F3ADF24400006144
S1134ACEE8ECBB4A00ECEF4A00AF4001BDF28DF2B8
S1134ADE5C609DF0F4F1ADF044000061E8ECD74A5F
S1134AEE0061EFC4C2C061CFD7A806BDF0EAF0AA38
S1134AFE40A1BDF48DF45C3F9DF2F4F3FAF0AC42A8
S1134B0EBDF4ADF246F461F8EC344B00FAF0AC406F
S1134B1EBDF4ADF006F4BDF6DAF68804480000DA0A
S1134B2EF0ADF2784000D720048F12FF9800303495
S1134B3EB6B802FCF74A001004D720048F46FF983B
S1134B4E0030ACB5B802FCF74A001004D720048F2D
S1134B5E4AFF98003024B5B802FCF74A001004D777
S1134B6EAF30B6BDF2AF32B6BDF0ADF246F061F87D
S1134B7EECA04B00AF32B604F0B5168B9F10FFAF0E
S1134B8E32B6A1BDF28DF25C3F9DF0F4F1ADF0BFF3
S1134B9E32B6D7AFA8B5BDF2AFAAB5BDF0ADF246E9
S1134BAEF061F8ECD34B00AFAAB50468B5168B9F31
S1134BBE44FFAFAAB5A1BDF28DF25C3F9DF0F4F1B6
S1134BCEADF0BFAAB5D7AF20B5BDF2AF22B5BDF0DB
S1134BDEADF246F061F8EC064C00AF22B504E0B439
S1134BEE168B9F48FFAF22B5A1BDF28DF25C3F9D9F
S1134BFEF0F4F1ADF0BF22B5D78F12FF300700BF2E
S1134C0E0A01D78F46FF300700BF0E01D78F4AFF28
S1134C1E300700BF4A01D7A804BDF0FAF08C109DEE
S1134C2EF0D4F061E8EC874C007120F000AF240161
S1134C3EBDF28DF26C039DF08DF39DF1ADF0BF24AA
S1134C4E01715AED715AE9716AED716AE9717AED81
S1134C5E717AE9302200BF1001309780BF180171BC
S1134C6E407000300700BF0A01302201BF1201302C
S1134C7E9744BF1A01EC2C4D004AF00161E8ECE0B8
S1134C8E4C007120F000AF2401BDF28DF26C0C9D2E
S1134C9EF08DF39DF1ADF0BF2401710AEE710AEAB5
S1134CAE711AEE711AEA712AEE712AEA302280BF65
S1134CBE1401309780BF1C0171407000300700BF93
S1134CCE0E01302281BF1601309744BF1E01EC2C19
S1134CDE4D007130F000AF6401BDF28DF26C039D96
S1134CEEF08DF39DF1ADF0BF6401710AED710AE927
S1134CFE711AED711AE9712AED712AE9302200BF99
S1134D0E5001309780BF580171407000300700BFCA
S1134D1E4A01302201BF5201309744BF5A01D7A82D
S1134D2E04BDF0FAF08C109DF0D4F061E8EC894DDE
S1134D3E00715BE1715BE5716BE1716BE5717BE1B8
S1134D4E717BE5AF2A01BDF28DF26C019DF08DF3FE
S1134D5E9DF1ADF0BF2A01AF2201BDF28DF26C03BD
S1134D6E9DF08DF39DF1ADF0BF2201711021FF7105
S1134D7E2001FF712821FFEC224E004AF00161E868
S1134D8EECDC4D00710BE2710BE6711BE2711BE65C
S1134D9E712BE2712BE6AF2A01BDF28DF26C049DEC
S1134DAEF08DF39DF1ADF0BF2A01AF2201BDF28D5E
S1134DBEF26C0C9DF08DF39DF1ADF0BF22017110DC
S1134DCE20FF710000FF710820FFEC224E00710BD2
S1134DDEE1710BE5711BE1711BE5712BE1712BE5A3
S1134DEEAF6A01BDF28DF26C019DF08DF39DF1ADB4
S1134DFEF0BF6A01AF6201BDF28DF26C039DF08DBE
S1134E0EF39DF1ADF0BF6201714021FF713001FFDE
S1134E1E713821FFD761EFC1C3C561CF2014A81E1D
S1134E2EBDE8A820BDF4A822BDF6C9EA00008DEAAB
S1134E3E76E68696DD05311D96DFFBB80CB810318B
S1134E4E7B98129813300048B80030E801B802A8D5
S1134E5E10B804A812B8068DF498088DF5980B8D29
S1134E6EF6980A8DF79809FC38C900ADF0B800AD74
S1134E7EF2B80288089DF4880B9DF5880A9DF68881
S1134E8E099DF7ADF4B804ADF6B806FC34C900AD0F
S1134E9EF004FFFFBDF0ADF261D8A104FFFFBDF237
S1134EAEADF2311EB80E8DF161FB980D8DF061FBE4
S1134EBE980CA80CBDF088089DF4880B9DF5880A03
S1134ECE9DF688099DF7ADF0447F0061E3ECEC4E4E
S1134EDE00A6EAADEA44100061E8EC3C4E00FAE8A4
S1134EEE8C109DF4A80C319DBDECADE8B800D4F443
S1134EFE61E8EC414F008DF49808FC254C00AF2678
S1134F0E01BDF28DF25CF09DF08DF39DF1ADF0BF1D
S1134F1E2601BDF28DEA5C0F9DF06BF29DF48DF3CC
S1134F2E9DF5ADF4BF2601ADECBF10FFBF12FFEC33
S1134F3EB44F004AF40161E8EC814F00FC254C00AB
S1134F4EAF2601BDF28DF25C0F9DF08DF39DF1AD98
S1134F5EF0BF2601BDF28DEA31496BF29DF48DF35B
S1134F6E9DF5ADF4BF2601ADECBF44FFBF46FFEC8B
S1134F7EB44F00FC254C00AF6601BDF28DF25CF01F
S1134F8E9DF08DF39DF1ADF0BF6601BDF28DEA5C2F
S1134F9E0F6BF29DF48DF39DF5ADF4BF6601ADEC90
S1134FAEBF48FFBF4AFFADE8B800FC2D4D001014FA
S1134FBE61EFC4C2C061CFD732D0B4F678000030EE
S1134FCEE803780200F678040032CEB430CC3078A0
S1134FDE00003034B6780C0030F0B5780E00F1488D
S1134FEE100032BEB4F678000030E803780200F602
S1134FFE78040032BCB430CC3078000030ACB578D4
S113500E0C003068B5780E00E148100032ACB4F6EE
S113501E78000030E803780200F678040032AAB46F
S113502E30CC307800003024B5780C0030E0B47801
S113503E0E005102481000D761EFC1C3C561CF20E5
S113504E0AA814BDE8A816BDECF6B806B808ADEC6F
S113505EB800A80606E8BDF0FAF08C029802300AF1
S113506E00B804FC805400ADF0BDEAADECB80051BC
S113507E2E9802FCDE5100ADF006EABDF0A808063B
S113508EF0B808FBF8FF617906A80644030061E84E
S113509EEC5C5000ADECB800FAE88C059802300ACE
S11350AE00B804FC805400A80806F0BDF0100A6194
S11350BEEFC4C2C061CFD72006A80ABDF0BDF2DA94
S11350CEF230FC30780000ADF0040200B800F6B8FF
S11350DE02300400B804FC73C2001006D7A804BD45
S11350EEF0BDF2DAF230FC30780000DAF0880648CF
S11350FE02008808480300880A480400880C480502
S113510E00D73278B630FC30780000F1480200F156
S113511E480300F1480400F1480500D761EFC1C30C
S113512EC561CF2006A810BDEAA812BDECA81406CE
S113513EECB804C9E80000A80446EC61F8EC76511A
S113514E00FAEAABBDF0ADEAB800FAEC8B9802AD0A
S113515EF0BDF2FAF2ABBDF2FAF261FAADE806F086
S113516EBDE8A6ECEC455100ADE8BDF0100661EFCC
S113517EC4C2C061CFD761EFC1C361CF2006A80EF0
S113518EBDEAA810BDE844000061F8ECC25100B8B5
S113519E00FC09C300FAEAABBDF2ADEAB800ADE813
S11351AEB802ADF0B804FAF2AC02BDF2FAF261FA4A
S11351BEECC45100BDF0100661EFC2C061CFD72020
S11351CE04A808B800A80AB802FC8451001004D739
S11351DE2004A808BDF0BDF4FAF4ABBDF2ADF0B8EE
S11351EE00880A9802ADF2BDF4FAF4ABBDF2FAF2FD
S11351FE61FA1004D761EFC1C361CF2004A80CBDBE
S113520EE8B800510D9802FCDE5100ADF0BDEAADD8
S113521EE8B800510A9802FCDE5100ADF006EABD72
S113522EF0100461EFC2C061CFD761EFC1C361CF8B
S113523E2004A80CBDE8B800A80EB802FC845100E6
S113524EADF0BDEAADE8B800FC035200ADEA06F0DD
S113525EBDF0100461EFC2C061CFD761EFC1C3C509
S113526E61CF2036A842B808A844B80A88469DECF7
S113527EF198354AEC0161F3EC8D5200CDEC0AAE97
S113528EF8043400B8108DEC9DE8F4E98DE99DEA3C
S113529E9DEBA808B800A80AB802ADE8B804ADEAB8
S11352AEB806FC34C900ADF0B80CADF2B80E880CDB
S11352BE9DF18DEC708DF1D6609DF08DF0768808A1
S11352CE612E9DF0A810B8128DF04C0971FF61F398
S11352DEECE852000C30ECEA52000C379DF0A810AA
S11352EEBDF2DAF28DF0480000ADF2B1B810A80E9E
S11352FE440000A80C61F844000061F8EC1A530055
S113530EA80CB808A80EB80AEC945200A840B8002D
S113531EA812B802FC845100103661EFC4C2C061F9
S113532ECFD761EFC1C361CF200CA814BDE8A81676
S113533EBDF4A818BDF6A81ABDF044000061E8EC4F
S113534E6F5300FAE8ABBDF0ADE8B8008DF49802E7
S113535EADF0BDF2FAF2ABBDF2FAF261FAECFA5329
S113536E00440A0061E8ECE65300ADE8B80071743D
S113537EF761C8ECD85300512D98028DF4980B8D1B
S113538EF5980A8DF698098DF79808FCDE5100AD54
S113539EF0BDEAADE8B800880B9DF4880A9DF58847
S11353AE099DF688089DF730000026F4B8023000F7
S11353BE0061D8B126F6B804510A9806FC69520069
S11353CEADF006EABDF0ECFA5300ADF4B802ADF65A
S11353DEB804510AECF45300ADE8B800ADF4B802C9
S11353EEADF6B8048DF09806FC695200100C61EF0E
S11353FEC2C061CFD72008A80EBDF0A80CB800AD6E
S113540EF0B802317B98049805A810B806FC305306
S113541E001008D761EFC161CF2008A80EBDF2A815
S113542E10BDF4A812BDF6A814BDF044000061E846
S113543EEC645400ADF2BDE8FAE8ABBDF0ADF2B8E1
S113544E008DF49802ADF0BDF2FAF2ABBDE8FAE8C5
S113545E61FAEC785400ADF2B800ADF4B802ADF6D2
S113546EB8048DF09806FC695200100861EFC06113
S113547ECFD72008A80CB800880E9802F19803F133
S113548E9804F19805A810B806FC2254001008D709
S113549E61EFC1C361CF2006A80EBDE8B800881025
S11354AE9802A812B804FC805400ADF0BDEAADE831
S11354BEB800FC035200ADF006EABDF0100661EF31
S11354CEC2C061CFD788049DF6AFB401BDF48DF68A
S11354DE76E68696DD05311D96DFFBBDF28DF26B09
S11354EEF49DF08DF36BF59DF1ADF0BFB401AFBA41
S11354FE01BDF48DF29DF07AF0FF8DF39DF17AF1FA
S113550EFF8DF05BF49DF28DF15BF59DF3ADF2BF73
S113551EBA01AFB801BDF48DF05BF49DF28DF15B71
S113552EF59DF3ADF2BFB8014AF60461F8EC9A5555
S113553E004AF60461F3EC6A55004AF60261F8EC8F
S113554E8C55004AF60261F3EC9355004AF601615C
S113555EE8ECAB5500715AE6ECAB55004AF6066121
S113556EF8ECA855004AF60661D8ECA155004AF6A7
S113557E0761E8ECAB5500712AD4ECAB5500716AA7
S113558EE6ECAB5500717AE6ECAB5500717AE7ECBC
S113559EAB5500710AD4ECAB5500711AD4AFB001FF
S11355AEBDF28DF25C9E9DF0F4F1ADF0440000610D
S11355BEE8ECD75500AFB401BDF28DF26C019DF04D
S11355CE8DF39DF1ADF0BFB401D761EFC1C3C561D9
S11355DECF200CA816BDF4A818BDF6AFB001BDF2CD
S11355EE8DF25CDE9DF0F4F1ADF044000061F8EC58
S11355FE075600E4ECEC0A5600CDEC02ADF644FF7F
S113560EFFADF461F844FFFF61E8EC2A5600712007
S113561EE7FF61FD7128E7FFECA55600ADF4BF90DE
S113562EBAADF6BF92BA7100D4FFAF8CBAB808AF58
S113563E8EBAB80AADF4B800ADF6B802304100B86F
S113564E04F6B806FC34C900FBF8FFADF061090896
S113565EBDF0ADF261D8A161090ABDF2ADF0BF8C07
S113566EBAADF2BF8EBA4AEC0261E8EC8356006121
S113567EFDEC85560061EDAF90BABDE8AF92BABDB0
S113568EEAADEA440000ADE861F844000061E8ECDC
S113569E7456007108D4FF100C61EFC4C2C061CF00
S11356AED78FF0005C019DF0D4F061F8ECCE56007B
S11356BEAFB00144000061E8ECCE56007108F00072
S11356CED7C9F00000D7A804BF8ABAD78FFAFF9DB6
S11356DEF0717BFAAF94BABDF4AF96BABDF68DF005
S11356EE9FFAFFADF4BDF0ADF6BDF2D761EFC1C3C5
S11356FEC561CF2008C9EC98B6EAECA94400006154
S113570EF8EC955700FCDA5600ADF0BDE8ADF2BDED
S113571EEAFAECADE861290ABDF4ADEA61D8B161EB
S113572E290CBDF6DAECADE8780A00ADEA780C0087
S113573EAC06B804AC08B806A80426F4BDF0A80656
S113574E61D8B126F6BDF2DAECADF0780600ADF212
S113575E780800A80646F6A80461F846F461F3EC4E
S113576E955700FAECEAECADF0610902BA06ADF217
S113577E61D8A1610904BA08ADE8B800ADEAB8026F
S113578EABBDF2DAF261DAADEC040E00BDEC440806
S113579EB761E8EC075700100861EFC4C2C061CFCF
S11357AED761EFC1C361CF2008D516B761E8EC1AF3
S11357BE59008FFAFF5C809DF4AF8CBAD4F461E883
S11357CEEC0F5800B800AF8EBAB8028FD0FF9DF719
S11357DEAF8A01BDF48FD0FF9DF65AF70161E8EC54
S11357EE4858005AF60161F8EC695800A800040103
S11357FE00B800A80261D8A1040000B802EC6558F4
S113580E00B800AF8EBAB802AF8A01BDF4AF8CBA3D
S113581EB804AF8EBAB806A804BDF6A806BDE8A8AB
S113582E0246E8A80061F846F661E8EC5D5800AD62
S113583EF444FEFF61E8EC695800A800040100B8C6
S113584E00A80261D8A1040000B802EC695800A8AF
S113585E04B800A806B802C9F4FEFFA802315D9D83
S113586EEB8801708802315D9DEAA800315DBDE8C8
S113587EFBF8FFADE861090000BDE8ADEA61D8A10F
S113588E610902BDEAADEA315D9DEBD8E98DEA31DD
S113589E5D9DEAADE8315DBDE8ADE861090000BD8E
S11358AEE8ADEA61D8A1610902BDEAADEA315D98BD
S11358BE07D8E98DEA315D9806ADE8315DB804A8E4
S11358CE0426E8B804A80661D8B126EAB806A804E6
S11358DE311DBDE8A80661EEBDEAADE86109000020
S11358EEBDE8ADEA61D8A1610902BDEA30FEFF262A
S11358FEF4BDF0F4F28DF29DF3ADF006E8BDF4AD17
S113590EF261D8A106EABDF6EC9B5900FCDA56000A
S113591EADF2312D9DF7D8F18DF2312D9DF6ADF00E
S113592E312DBDF4ADF406F0BDF4ADF661D8A1068B
S113593EF2BDF6ADF6312D9DF3D8F58DF6312D9DD4
S113594EF2ADF4312DBDF0ADF406F0BDF4ADF6615B
S113595ED8A106F2BDF6ADF6312D9DF3D8F58DF630
S113596E312D9DF2ADF4312DBDF0ADF406F0BDF444
S113597EADF661D8A106F2BDF6ADF6313D9DF7D870
S113598EF58DF6313D9DF6ADF4313DBDF4ADF4BD6E
S113599EF0ADF6BDF2100861EFC2C061CFD761EF72
S11359AEC1C3C561CF2004A80EBDEAA810BDECD5B5
S11359BE17B761E8EC0B5A00FCAF5700ADF0BDE829
S11359CEADEC440000ADEA61F844000061F8EC1758
S11359DE5A00FCAF5700ADF026E844E70361E3EC50
S11359EECE5900ADEA04FFFFBDEAADEC61D8A104C7
S11359FEFFFFBDECADE804E803ECCC5900ADEAB80A
S1135A0E00ADECB802FCD85500100461EFC4C2C05E
S1135A1E61CFD7AF08B744000061F8EC335A00BD2C
S1135A2EF2DAF261DAD7AF0AB744000061F8EC4655
S1135A3E5A00BDF2DAF261DAD7E515B7D7AF8CBAF0
S1135A4EBDF0AF8EBABDF2ADF0040100BDF0ADF203
S1135A5E61D8A1040000BDF2ADF0BF8CBAADF2BFA7
S1135A6E8EBAD78F96B69DF4C9F07EB6ADF0449635
S1135A7EB661C8ECEF5A00ADF0BDF6EAF6895C01EA
S1135A8E9DF2D4F261F8ECE45A00D4F461E8ECA986
S1135A9E5A00DAF0FAF08C05480100FAF08DF44E53
S1135AAE0161E8ECD05A00FAF0AC02BDF28C049D10
S1135ABEF57AF5FFADF2BDF6FAF68B5BF59BECE4E9
S1135ACE5A00D4F461E8ECE45A00FAF0AC02BDF6E4
S1135ADEEAF6896E0499ADF0040600BDF0EC7A5A2C
S1135AEE008F96B6819DF04AF0FF61F8EC055B00DD
S1135AFE9F96B6EC085B00F596B6D761EFC1C3610D
S1135B0ECF2002880A9DF2880C9DEA4AF21861F3AE
S1135B1EEC6F5D008DF20CF29DF04AF00761F3EC30
S1135B2E755B004AF21461E8EC425B0071786E001A
S1135B3EEC755B004AF21561E8EC535B0071086C7E
S1135B4E00EC755B008F76009DF18DF20CF59DF0E7
S1135B5ED4F161F8EC705B008DF14BF061E3EC7500
S1135B6E5B008DF09F76008DF2500ED6040A31BD87
S1135B7EE88DF2705100BDF40418B7BDF0BDF6EA1D
S1135B8EF689D161F8EC945C008DF2500ED6040ABD
S1135B9E31BDF2FAF28C029DF2ADF0BDF6DAF6F1F9
S1135BAE4800004AF2E061E8EC0C5C00C9F0000029
S1135BBEADF00106F001BDF2047EB614895C019DC0
S1135BCEF6D4F661F8ECF95B00ADF2047EB61489F6
S1135BDE311A9DF6CDF700ADF646F461E8EC945C0F
S1135BEE00ADF2047EB614895CFE99A6F0ADF044C5
S1135BFE040061E8ECBE5B005106EC8E5C004AF2D8
S1135C0E0461F8EC705C004AF20461F3EC405C0051
S1135C1E4AF20261F8EC625C004AF20261F3EC694A
S1135C2E5C004AF20161E8EC945C00AF9201EC81F5
S1135C3E5C004AF20661F8EC7E5C004AF20661D81A
S1135C4EEC775C004AF20761E8EC945C00AF9E01CD
S1135C5EEC815C00AF9401EC815C00AF9601EC81A9
S1135C6E5C00AF9801EC815C00AF9A01EC815C00A2
S1135C7EAF9C01BDF044098461E8EC945C008DF2A4
S1135C8E9800FCD354004AEA0561F3EC6F5D008D75
S1135C9EEA76E18696DD05311996DFFB9DF05C22EE
S1135CAE9DF1D4F161E8EC285D005AF01D61F8EC29
S1135CBE6F5D00FAE88B9DF2AC04BDF0FAF08DF244
S1135CCE61DD717BFA6D9B61CDFAE8AC06BDF04ADD
S1135CDEEA0261F8ECEF5C004AEA0461E8EC005D6C
S1135CEE00FAF08DF261DD717BFA6D9B61CDEC0FE4
S1135CFE5D00FAF08DF27CFF61DD717BFA5D9B61D4
S1135D0ECD8DEA0CFD9DEAFAE8AC08BDF04AEA0135
S1135D1E61F3EC605D00EC4F5D00FAE88B9DF2AC34
S1135D2E04BDF0FAF08DF27CFF61DD717BFA5D9BB0
S1135D3E61CDFAE8AC0ABDF04AEA0561E8EC605DB3
S1135D4E00FAF08DF261DD717BFA6D9B61CDEC6F23
S1135D5E5D00FAF08DF27CFF61DD717BFA5D9B6173
S1135D6ECD100261EFC2C061CFD720048F98AF4C23
S1135D7EFF61F8ECA05D00E19800FCD35400FCAF89
S1135D8E560088089800F19802FC095B0051FF9FA9
S1135D9E98AF1004D788044C19DE4F500ED61279E2
S1135DAE0E3116490A315D79163161E879103116D2
S1135DBE88060CFF490B3131231931130B310304BF
S1135DCE7181EF267191EF2231030471A1EF1B71E2
S1135DDEB1EF1731130B31030471C1EF0D71D1EF14
S1135DEE0931030471E1EF0271F1D72004AF10B74A
S1135DFEBDF0AF12B7BDF2ADF244FFFFADF061F8E6
S1135E0E44FFFF61F8EC325E00AF0EB746F2AF0C02
S1135E1EB761F846F061D8EC325E008F98AF980007
S1135E2EFC785D008F98AF9DF14AF1FF61F8EC6E3E
S1135E3E5E00AF0CB7040100BF0CB7AF0EB761D84C
S1135E4EA1040000BF0EB78F14B79DF07AF0018D38
S1135E5EF09F14B78DF198008DF09802FCA35D00AD
S1135E6E1004D7C9F0000088044C19DE11500ED668
S1135E7E1279163116490A315D0CFF7101F0D78F74
S1135E8EA8FF9F31B7717BFACF770009CFF5008059
S1135E9EFC2D7700FC847700717AFAD7FCCF56007C
S1135EAEADF044000061E8ECC95E00FC454500FC21
S1135EBE0C4600FCFA5600ECBD5E00C9F00000D79B
S1135ECEECCE5E008F9EFF5C109DF0D4F061F8EC7A
S1135EDEF75E0071489EFFAF34B744000061F8ECE2
S1135EEEF75E00BDF2DAF261DA8F9EFF5C089DF078
S1135EFED4F061F8EC1C5F0071389EFFAF32B744EA
S1135F0E000061F8EC1C5F00BDF2DAF261DAD72012
S1135F1E0A3036B7B800F19802F19804F19806F1F8
S1135F2E9808FCEB5000100AD7200A303CB7B80092
S1135F3EF19802F19804F19806F19808FCEB5000E0
S1135F4E100AD7200A304AB7B800F19802F1980423
S1135F5EF19806F19808FCEB50003042B7B800FCFB
S1135F6EC55000100AD7200A3050B7B800F1980275
S1135F7EF19804F19806F19808FCEB5000100AD73A
S1135F8E200A3056B7B800F19802F19804F1980639
S1135F9EF19808FCEB5000100AD7200A305CB7B811
S1135FAE00F19802F19804F19806F19808FCEB5070
S1135FBE00100AD7200A3062B7B800F19802F1989F
S1135FCE04F19806F19808FCEB5000100AD7A804C7
S1135FDEBDF0DAF0F1480600DAF0F1480700F148B6
S1135FEE0800C9F20000ADF006F2BDF4DAF4F1488F
S1135FFE0900A6F2ADF244200061E8ECF45F00DA89
S113600EF0F1482900F6782A00FAF0AC3644000084
S113601E61F8EC2A6000BDF2DAF261DAD72002C927
S113602EF068B7ADF0BDF2DAF230CEB4780000F11C
S113603E480200ADF0B800FCDC5F001002D732A9B4
S113604EB7F1480000F1480100F1480500F1480796
S113605E00300200780900F6780B00F1482300F6B0
S113606E782D00307A32782B00F1483000D788042E
S113607E9F4AFF8FE1FF5C029DF0D4F061F8EC8142
S113608E6000711BE1D7200251FF9800FC7C600078
S113609E8F4AFF9DF01002D72004A808BDF0FAF035
S11360AE8C049800E19802FCA35D001004D7200430
S11360BEA808BDF0FAF08C049800F19802FCA35DD8
S11360CE001004D761EFC161CF2002A808BDE8EA31
S11360DEE88A06D161F8EC396100CF4AFFFFFAE88D
S11360EEAC08BDF0DAE8A1780800ADF04400026116
S11360FEF3EC1961008FE1FF5C029DF0D4F061F8BE
S113610EEC036100711BE1ECE860008FE1FF5C02BF
S113611E9DF0D4F061F8EC196100711BE1ADE8B8A3
S113612E00FCA66000DAE8F1480600100261EFC038
S113613E61CFD761EFC161CFFCDA5600ADF0BDE897
S113614EFC9460004AF0FF61F8EC756100FCDA56CD
S113615E00ADF026E8BDF0A80846F061F3EC4E6100
S113616E00F4F0EC776100E4F061EFC061CFD76129
S113617EEFC1C3C561CF200AA814BDE8A818BDEAB3
S113618EA81ABDECADE8B800FCD26000ADE8B800CA
S113619EFCBC6000ADE8B800302C01B802FC4161D3
S11361AE0088166C409800FC7C6000301800B8041F
S11361BEA804B806F198089809ADEABDF0ADECBD97
S11361CEF2A806BDF4A808BDF6E8F4D3DD15ADF2C9
S11361DE311EBDF28DF161FB9DF18DF061FB9DF0E1
S11361EE93DFEB8DF09800FC7C6000A80404F8FFAC
S11361FEB80444F8FF61E8ECBE61008816D161F87A
S113620EEC2162004C0861F8EC286200CDF0FFEC42
S113621E2B6200CDF095EC2B6200CDF0878DF098BB
S113622E00FC7C6000F4EAFC946000DAE88DF0482F
S113623E0B00D171FF61C8EC5862004AEAFF61F8A5
S113624EEC586200A4EAEC356200100A61EFC4C295
S113625EC061CFD761EFC1C361CF2002A80ABDE8E8
S113626EFCDA5600ADF0BDEAFC946000DAE88DF07D
S113627E480B004AF0FF61E8ECA36200FCDA56001A
S113628EADF026EA442C0161E3EC766200DAE851C3
S113629E0FECB062004AF0FE61F8ECC16200DAE87D
S11362AE510D480500ADE8B800FCA66000F4F0EC12
S11362BEC36200E4F0100261EFC2C061CFD761EF98
S11362CEC1C3C561CF2008A812BDE8A814BDF4A8A7
S11362DE16BDF6A81ABDEA44000061F8EC5C640031
S11362EEA81806EA44000261F3EC626400EAE88A44
S11362FE06D161F8EC2C6300FAE8ABBDF0AC02BD3C
S113630EF2ADF646F2ADF461F846F061E8EC2C63BA
S113631E00FAE8A81861490861C8EC996300DAE844
S113632EADF4780000ADF6780200EAE88A0C4C036E
S113633E61F8EC586300D8F58DF6311DBDF6ADF459
S113634E311D9DF6ADF4319DBDF4ADE8B80051118B
S113635E9802ADF4B804ADF6B806FC7D6100D4F035
S113636E61F8EC7F6300DAE85103480500EC6264DF
S113637E00ADE8B800FC626200D4F061F8EC62642F
S113638E00DAE8F6780800E1480600CF4AFFFFA8D5
S113639E1816EAE8AA084761C8ECCC63008FE1FF3F
S11363AE5C029DF0D4F061F8ECAB6300711BE1CF9D
S11363BE4AFFFFEAE8AA08A1BA08EC9D6300ADEA19
S11363CEB1BDF2C9F00000ADF046F261C8EC0D6447
S11363DE008FE1FF5C029DF4D4F461F8ECDF6300FE
S11363EE711BE18F4AFF9DF6A81C06F0BDECDAEC9A
S11363FE8DF6480000CF4AFFFFA6F0ECD563008F60
S113640EE1FF5C029DF0D4F061F8EC0D6400711BA9
S113641EE18F4AFF9DF0A81C06F2BDF4DAF48DF06C
S113642E480000FAE8AC0806EABDEADAE8780800A3
S113643EEAE88A0AD161F8EC546400ADEA44FF013B
S113644E61E3EC5C6400ADE8B800FCD26000E4F0FB
S113645EEC6C6400ADE8B800FCA66000F4F0100823
S113646E61EFC4C2C061CFD7200CA810B800A81227
S113647EB802A814B804F6B806300002B808A81674
S113648EB80AFCCC6200100CD761EFC161CF2002B8
S113649EA808BDE8880A9F4AFFA80CBDF0040002B4
S11364AEBDF28FE1FF5C029DF4D4F461F8ECB064AC
S11364BE00711BE1FAF08B9F4AFF8FE1FF5C029D96
S11364CEF4D4F461F8ECC86400711BE1FAF08C01A9
S11364DE9F4AFFA6F0A6F0ADF046F261E8ECB06478
S11364EE008FE1FF5C029DF0D4F061F8ECEF6400E4
S11364FE711BE151FF9800FC7C600051FF9800FC79
S113650E7C6000FC946000DAE88DF0480B005AF0D1
S113651E1F4AF00561F8EC3D6500DAE851114805B3
S113652E00ADE8B800FCA66000F4F0EC3F6500E4B2
S113653EF0100261EFC061CFD761EFC161CF2008C7
S113654EA80EBDE8A810BDF0A812BDF2ADF244002D
S113655E00ADF061F844000061E8EC746500DAE81F
S113656E5112EC176600EAE88A0C4C0361F8EC94BD
S113657E6500D8F18DF2311DBDF2ADF0311D9DF2E5
S113658EADF0319DBDF0ADE8B80051189802ADF0F4
S113659EB804ADF2B806FC7D6100D4F061F8ECB835
S11365AE6500DAE85104EC176600ADE8B80051FE58
S11365BE9802A814B804FC976400D4F061F8EC1A9D
S11365CE6600ADE8B800305802B802FC416100D450
S11365DEF061E8ECED6500DAE85115EC176600ADF4
S11365EEE8B800510D9802F6B804F6B806FC7D61C1
S11365FE00D4F061E8EC136600FC946000D4F06102
S113660EF8EC286600DAE85114480500ADE8B80045
S113661EFCA66000F4F0EC326600ADE8B800FCA60F
S113662E6000E4F0100861EFC061CFD761EFC16183
S113663ECF2008A80EBDE8FAE8AC1CB800E6B802F4
S113664EF6B804ADE8040600B806FC4B7100D4F0AD
S113665E61F8EC906600FAE8AC1A440000AC1861DC
S113666EF844000061E8EC8E6600FAE8AC06DAE85D
S113667E781800AC08781A00EAE88A046C809A0448
S113668EE4F0100861EFC061CFD761EFC161CF2094
S113669E06A80CBDE8FAE8AC0EB800FAE8AC10B8DF
S11366AE02880E9804FC0B6E00D4F061F8ECD166EF
S11366BE00FAE88C12705100315D04FEB7BDF0ECA7
S11366CED56600C9F00000100661EFC061CFD76136
S11366DEEFC1C3C561CF201EA828BDECA82ABDE812
S11366EEA82CBDEAFAEC8C059DF4D4F461F8EC20E8
S11366FE6700FAECAC14BDF0AC16BDF2ADEA46F28E
S113670EADE861F846F061E3EC286700F4F0EC9133
S113671E68008DF49DF0EC9168004AF40261F8EC87
S113672E8B6800ADEA440000ADE861F844000061F6
S113673EE8EC5F6700DAECADE8780600ADEA7808BD
S113674E00ADE8780A00ADEA780C00E4F0EC91684C
S113675E00FAECAC0AB808AC0CB80AAC1CBDF0FAE2
S113676EF08C0E705100040900B81CA80804FFFF39
S113677EBDF0A80A61D8A104FFFFBDF2A81CB81091
S113678EF198129813A810BDF4A812BDF6E8F4D32C
S113679EDD15ADF2311EBDF28DF161FB9DF18DF073
S11367AE61FB9DF093DFEBADE804FFFFB80CADEA9F
S11367BE61D8A104FFFFB80EA81CB814881398164C
S11367CE88139817A814BDF4A816BDF6E8F4D3DD03
S11367DE15A80E311EB80E880D61FB980D880C613C
S11367EEFB980C93DFEBA80E46F2A80C61F846F06A
S11367FE61D8EC166800A80A440000A80861F844A1
S113680E000061E8EC286800FAECAC18DAEC7806C3
S113681E00AC1A780800EC376800A80C26F0B80C07
S113682EA80E61D8B126F2B80EA80CB818A80EB8E6
S113683E1AADEC040600B810A81A440000A818619A
S113684EF844000061F8EC8B6800FAECAC1CB8005C
S113685EAC06B802AC08B804A810B806FC7D6E00ED
S113686EA81804FFFFB818A81A61D8A104FFFFB82E
S113687E1AD4F061E8EC466800EC916800DAECECAE
S113688E4F6700101E61EFC4C2C061CFD761EFC164
S113689EC3C561CF2006A810BDECEAEC8A05D16110
S11368AEF8EC536900EAEC8A04D171FF61C8EC4B31
S11368BE6900ADECB800E19802FC986600ADF044B6
S11368CE000061F8EC536900EAEC8A054C0161F3AF
S11368DEECF06800FAECAC14DAF0781C00AC167824
S11368EE1E00FAECAC18BDE8AC1ABDEADAF0ADE85D
S11368FE781A00ADEA781400AFF4B7BDF244000084
S113690E61F8EC436900ADF0041800B800ADF00472
S113691E1600B8028DF098058DF19804ADF2BDF411
S113692EDAF461DA88059DF088049DF1FAF0AC186A
S113693EDAF0781200EAEC8A045C7F9A04FC8A6D21
S113694E00EC556900F4F0100661EFC4C2C061CFCB
S113695ED761EFC1C3C561CF2042A84CBDECEAECB0
S113696E8A054C0161E8ECC56900FAEC8C049DF0D3
S113697E5C029DF1D4F161F8ECC569005AF0046132
S113698EF8ECDA6900FAECAC14BDF4AC16BDF6AC56
S113699E0C46F6AC0A61F846F461F8ECDA6900AD1F
S11369AEECB800ADF4B802ADF6B804FCDD6600D464
S11369BEF061E8ECDA6900DAECE6780200F6B80E7B
S11369CEBDF0104261EFC4C2C061CFD7A850B81851
S11369DEEC296B00AC1CBDF0EAF08A04919DF2D850
S11369EEE98DEA317D9DF4ADEA317D9DF5ADEA3157
S11369FE9EBDF68DF25BF498168DE898148DE95CC5
S1136A0E0198158816D161F8EC446B00A814163061
S1136A1E000227B80CA818BDF2B81AA80C46F261E9
S1136A2EC8EC356A00B81AFAECAC0604FEFFBDF4E5
S1136A3EAC0861D8A104FFFFBDF6AC1CBDF0FAF0A2
S1136A4E8C0E705100B810F198129813A810BDF066
S1136A5EA812BDF28DF0D1DD1175ADF6DAF4311C4C
S1136A6E61EE95DFF9BDF613BDF4FAECAC1CBDF284
S1136A7EFAF2ADF4610910BDF4ADF661D8A1610965
S1136A8E12BDF68816982C8813982D982E982FFBE5
S1136A9EF8FFADF461092CBDF4ADF661D8A161091E
S1136AAE2EBDF6A81A44000261E8EC266C00AF9CD9
S1136ABEAF46F6AF9AAF61F846F461E8ECDA6A00D5
S1136ACE30FFFFBF9AAF30FFFFBF9CAFAFFCB7B82C
S1136ADE00ADF4B802ADF6B804A84EB806FC47658E
S1136AEE00D4F061F8ECC56900A84E040002B84E5B
S1136AFEA81A16A81827B818A81AB830F1983298F8
S1136B0E33FBF8FFEAECDAECAA0A610930780A00E2
S1136B1EAA0C61D8A1610932780C00FAECAC0ABD5A
S1136B2EE8AC0CBDEAA818FAEC44000061E8ECE20B
S1136B3E6900ECF76C00A81444000061E8EC1A6AD2
S1136B4E00FAECAC06B81CAC08B81EA81E44000033
S1136B5EA81C61F844000061E8EC946B00FAECACFC
S1136B6E18B820AC1AB822A822440000A82061F854
S1136B7E44000061F8EC026C00A820DAEC78060000
S1136B8EA822EC1F6C00ADF0B800A81CB802A81E19
S1136B9EB804AEF804420004FCFFB806FC7D6E0097
S1136BAED4F061E8ECBC6B00A814ECCC6900A83EF0
S1136BBEB824A840B826FAECAC1CBDF0EAF08A1A48
S1136BCE4C1061E8ECE06B0030F8FFB828F6ECE806
S1136BDE6B0030F8FFB82830FF0FB82AA828BDF292
S1136BEEA82ABDF4A82646F4A82461F846F261D872
S1136BFEEC166C00ADECB800FC3A6600D4F061E81B
S1136C0EEC1A6A00ECC56900A824DAEC780600A830
S1136C1E26780800EC1A6A00A81444000061E8EC17
S1136C2E956C00FAECAC14B836AC16B838A836BD70
S1136C3EF0A838BDF2AC0C46F2AC0A61F846F0612D
S1136C4ED8EC956C008DF4980B8DF5980A8DF6980A
S1136C5E098DF79808FC8A6D00880B9DF4880A9DAF
S1136C6EF588099DF688089DF7D4F061F8ECC5699E
S1136C7E00ADF4BF9AAFADF6BF9CAF8FFAB76C01FF
S1136C8E9FFAB7ECAC6C00ADF4B800ADF6B802E107
S1136C9E9804FC0B6E00D4F061F8ECC56900A814DE
S1136CAE04FEB7B816A84EB834A81A16A81607BD0F
S1136CBEF0A816B80C46F061F8ECE76C00A80CBD11
S1136CCEF2A834BDF4DAF2FAF48B480000ADF4A164
S1136CDEB834ADF2A1ECC16C00A81616A80C27BDF1
S1136CEEF0A84E06F0ECFC6A00AC14B83AAC16B838
S1136CFE3CA83ABDF2A83CBDF4ADEA46F4ADE86159
S1136D0EF846F261E3EC276D00DAECADE878140096
S1136D1EADEA781600EC3E6D00AFF4B744000061A6
S1136D2EF8EC466D00A85044000061F8EC466D0086
S1136D3EEAEC8A046C809A04EAEC8A045C089DF0FE
S1136D4ED4F061E8EC5C6D00A850ECCC6900ADECBD
S1136D5EB800FC9B6800D4F061F8ECC56900EC56F1
S1136D6E6D002006A80AB800AEF8040A000402005A
S1136D7EB802E6B804FC5F69001006D761EFC1C320
S1136D8E61CF2008D5FAB761F8EC006E00AFFCB7FE
S1136D9EB800AF9AAFB802AF9CAFB80430FEB7B824
S1136DAE06FC476500D4F061F8EC026E00AFF6B74E
S1136DBEBDE8AFF8B7BDEAADEA440000ADE861F84E
S1136DCE44000061F8ECFD6D00AFFCB7B800ADE80F
S1136DDEB802ADEAB80430FEB7B806FC476500D475
S1136DEEF061F8EC026E00F6BFF6B7F6BFF8B7F531
S1136DFEFAB7E4F0100861EFC2C061CFD761EFC1FA
S1136E0EC361CF2008A810BDE8A812BDEAAF9CAF9D
S1136E1E46EAAF9AAF61F846E861F8EC676E00FC9B
S1136E2E8A6D00D4F061E8EC3F6E00F4F0EC746E01
S1136E3E00AFFCB7B800ADE8B802ADEAB80430FE56
S1136E4EB7B806FC766400D4F061F8EC396E00AD88
S1136E5EE8BF9AAFADEABF9CAF8814768FFAB761DC
S1136E6E6E9FFAB7E4F0100861EFC2C061CFD7612C
S1136E7EEFC1C3C561CF201AA826B80EA828B81032
S1136E8EA82ABDECA824BDF2FAF2AC0A040100B89B
S1136E9E06AC0C61D8A1040000B808A806BDF0A881
S1136EAE08BDF2A81046F2A80E61F846F061E3ECB4
S1136EBEC76E00F4F0ECD86F00A824BDF2FAF2AC61
S1136ECE16B812A824BDF2FAF2AC18B814A824BD50
S1136EDEF2EAF28A1A4C1061E8ECFC6E00880F702C
S1136EEE8810BDF0A810318EBDF2EC116F00A80E03
S1136EFE311D9DF0880F708810311D9DF1A8103141
S1136F0E7EBDF2FBF8FFADF0610912B806ADF26179
S1136F1ED8A1610914B808AF9AAFB816AF9CAFB830
S1136F2E18A816BDF0A818BDF2A80846F2A8066166
S1136F3EF846F061E8EC776F00A824BDF2EAF28A15
S1136F4E1A4C1061E8ECA26F00880E9DE8F4E98DEE
S1136F5EE99DEBADE80104FEB716ABDAEC78000060
S1136F6E8DEB480200ECD36F00A806B800A808B851
S1136F7E02F198048DF4980D8DF5980C8DF6980BFE
S1136F8E8DF7980AFC0B6E00D4F061E8EC476F00A5
S1136F9EECC16E00880E5C7F9DF4F4F5ADF4312DDA
S1136FAE04FEB7BDF4BDF0DAECEAF0895CFF4800EC
S1136FBE00EAF48A015CFF4801008A025CFF480281
S1136FCE008A035C0F480300E4F0101A61EFC4C298
S1136FDEC061CFD761EFC1C3C561CF201EA828BD44
S1136FEEECA82AB80AA82CB80CA82EB812A830B847
S1136FFE14A80C440000A80A61F844010061E3ECF3
S113700E3F7100FAECAC0A040100BDF0AC0C61D87F
S113701EA1040000BDF2A80C46F2A80A61F846F0DD
S113702E61F3EC3F7100FAECAC16B816AC18B81854
S113703EEAEC8A1A4C1061E8EC5B7000880B7088DD
S113704E0CBDF0A80C318EBDF2EC707000A80A31A4
S113705E1D9DF0880B70880C311D9DF1A80C317E9E
S113706EBDF2FBF8FFADF0610916B80EADF261D8B2
S113707EA1610918B810AF9AAFB81AAF9CAFB81C7B
S113708EA81ABDF0A81CBDF2A81046F2A80E61F80D
S113709E46F061E8ECCB7000EAEC8A1A4C1061E819
S11370AEECF67000880A9DE8F4E9ADE80104FEB739
S11370BEBDE8A812DAE8780000EC107100A80EB84A
S11370CE00A810B802F198048DF498098DF598086B
S11370DE8DF698078DF79806FC0B6E00D4F061E8D8
S11370EEECA67000EC417100880A5C7F9DF4F4F507
S11370FEADF4312DBDF4A812DAF478FEB7A81478E5
S113710E00B88FFAB76C019FFAB7EAEC8A144C01F7
S113711E61E3EC397100FAECA80E610906BFF6B70B
S113712EA81061D8A1610908BFF8B7E4F0EC417169
S113713E00F4F0101E61EFC4C2C061CFD761EFC17D
S113714EC3C561CF202EA838BDECA83AB81AA83C06
S113715EB81CA83EBDE8FAE8ABBDF0AC02BDF2AD7A
S113716EF2440000ADF061F844000061F8EC947153
S113717E00ADF0040100B816ADF261D8A104000010
S113718EB818ECB17100FAECABB816AC02B818E44E
S113719EEAA81C440000A81A61F844010061F8EC46
S11371AEB37100F4EAFAECAC0A040100B826AC0C94
S11371BE61D8A1040000B828A816B812A818B814EB
S11371CEC9F40000ADF4BDF6FAECAC0AB822AC0C6E
S11371DEB824A822BDF0A824BDF2ADF646F2ADF453
S11371EE61F846F061C8EC0E7300A826BDF0A8281D
S11371FEBDF2A81446F2A81261F846F061E3EC2041
S113720E7200300200B812F6B814A812B816A814F8
S113721EB818ADECB800A812B802A814B804AEF8A9
S113722E042E0004FCFFB8068DF498118DF5981009
S113723E8DF6980F8DF7980EFC7D6E0088119DF4D7
S113724E88109DF5880F9DF6880E9DF7D4F061F891
S113725EEC0E7300A82C440000A82A61F844000028
S113726E61F8EC897200A812040100B816A8146122
S113727ED8A1040000B818ECC67200A812040100CC
S113728EBDF0A81461D8A1040000BDF2FBF8FFAD57
S113729EF0612916B80AADF261D8B1612918B80C9B
S11372AEA81ABDF0A81CBDF2A80C46F2A80A61F8F3
S11372BE46F061F8ECEC7200ADF4040100BDF4ADDF
S11372CEF661D8A1040000BDF6A812040100B8129C
S11372DEA81461D8A1040000B814ECD67100ADEC6A
S11372EEB800A812B802A814B80430FFFFB80630CC
S11372FEFF0FB808FCE26F00D4F061E8EC4D7300A8
S113730EF4F0ECD07300A81204FFFFB81AA81461AD
S113731ED8A104FFFFB81CADECB800A81AB802A897
S113732E1CB804A812B806A814B808FCE26F00D45E
S113733EF061F8EC0E7300A81AB812A81CB814A8C1
S113734E16BDF0A818BDF2A81446F2A81261F846AC
S113735EF061F3EC147300FAE8ABB81EAC02B8207B
S113736EA820440000A81E61F844000061E8ECAABD
S113737E7300A816DAE8780000A818780200D4EA98
S113738E61F8ECCE7300EAECA816040100B9A81853
S113739E61D8A1040000BA02ECCE7300ADECB800C3
S11373AEA81EB802A820B804A816B806A818B808CB
S11373BEFCE26F00D4F061E8EC807300EC0E730015
S11373CEE4F0102E61EFC4C2C061CFD720048F0742
S11373DEBA9DF28F06BA705100BDF08F07BAD4F27F
S11373EE61E8EC237400318F46F071FF7177F1611F
S11373FEC8EC9574008F07BA318F312D0408BA1476
S113740E89316A9DF25AF2014AF20161E8EC9574EF
S113741E00ECF27400D171FF61E3EC9574008F07F8
S113742EBA318F46F071FF7177F161C8EC5A74006E
S113743E8F07BA318F312D0408BA1489316A9DF23F
S113744E5AF2014AF20161F8EC0875008F07BA315D
S113745E8FBDF28F06BA705100BDF0ADF246F071D9
S113746EFF7177F161F3EC9574008F07BA318FB128
S113747E312D0408BA1489316A9DF05AF0014AF08C
S113748E0161F8EC247500A007BA8F07BA9DF08F3E
S113749E06BA705100BDF28DF0318FBDF0ADF246DB
S11374AEF071FF7177F161D8EC4075008F07BA4C1B
S11374BE0B71FF61F3EC4075008F07BA318F312DDC
S11374CE0408BABDF0FAF0AC02BF68FF8F07BA31F8
S11374DE8F312D0408BABDF0FAF0AF04BA61090277
S11374EEEC6475008F07BA318F312D0408BA1489F4
S11374FE5C3F98008DF2EC3675008F07BA318F31F0
S113750E2D0408BA14895C3F98008DF29802FCA3EE
S113751E5D00EC5A74008F07BA318FB1312D040817
S113752EBA14895C3F9800F19802FCA35D00EC95B7
S113753E7400AF04BABDF2AF9EAFBDF0ADF2040459
S113754E0046F061C8EC6A7500ADF026F2BF68FF24
S113755E51FF9F07BAF6BF04BA1004D7300400ECEB
S113756E5B7500FCDA7300D78F68BA705100BDF2F8
S113757E8F69BA705100BDF0ADF226F0BDF0D78F11
S113758E69BA9DF24F68BA61C8ECB27500705100C9
S113759E046ABA168B705100BDF08DF2819F69BAE0
S11375AEECB67500C9F0FFFFD78F69BA9DF04F682E
S11375BEBA61C8ECD87500CDF100ADF0046ABA1604
S11375CE8B705100BDF0ECDC7500C9F0FFFFD7D70E
S11375DE61EFC1C3C561CF2006A810BDEAA814BDD2
S11375EEE8A812D544BA61F8EC337600B80406E87C
S11375FEBDECA80446EC61F8EC3D7600FAEAABBDAE
S113760EF0ADEAB800A804BDF2FAF28B9802ADF020
S113761EBDF2FAF2ABBDF2FAF261FAFBF8FF617950
S113762E04EC007600B8008DE89802FC7B7900AD7E
S113763EE8BDF0100661EFC4C2C061CFD72004D5F7
S113764E44BA61F8EC9176008F45BA4C1F61E3ECB5
S113765E737600A808BDF0DAF0E6780200C9F000EF
S113766E00ECA676008F46BA9DF2705100BDF0DA9A
S113767EF0880A4847BA8DF2819F46BA9F45BAEC04
S113768EA27600AEF8040800040200B800E19802E5
S113769EFC7B7900C9F001001004D7A804BDF0DA10
S11376AEF0F6780200DAF030E803780400F6780693
S11376BE00309232780000D7F569BAF568BAF5460B
S11376CEBAF545BAFC1A7D00D7E544BA88069F6719
S11376DEBAF546BAF545BAD7200A8F67BA9800307C
S11376EE47BAB8028F45BA9804E1980688109808EC
S11376FEFC447D00F546BAF545BAF544BA100AD7EE
S113770E2004A808B800E19802FCE676001004D71D
S113771E20023038BAB800FCA976001002D7D7CFB1
S113772EA0FF107170A1FF7148A4FF7168A1FFC979
S113773EF0903AC9F21C0000ADF004FFFFBDF0ADAD
S113774EF261D8A104FFFFBDF2ADF2440000ADF02A
S113775E61F844000061E8EC457700F5F300710828
S113776EA1FF7168A4FF8FA4FF5C809DF0D4F0612B
S113777EE8EC747700D761EFC1C3C561CFC9F0F0EF
S113778E00ADF0BDF2EAF2896C8099C9F490FFADB8
S113779EF4BDF6DAF6F6780000C9F6E7FFADF6BDED
S11377AEE8EAE8896C04997120EFFF7120EBFF3051
S11377BE2000780000ADF0BDE8EAE8896C0199304C
S11377CE5000BFB601C9F2B401ADF2BDF0FAF0AB90
S11377DEBDE88DE86C209DF08DE99DF1ADF2BDE81C
S11377EEDAE8ADF0780000C9F0D4FFADF0BDF2EAEE
S11377FEF2896C0199C9F2D0FFADF2BDE8EAE889CD
S113780E5CFE997108D8FF7108DCFF300080BF9AC6
S113781E0130FEFFBF6AFF36BE01ABBDEC8DEC5CE2
S113782EDF9DEA8DED9DEBADEABB36BC01ABBDEC45
S113783E8DEC5CDF9DEA8DED9DEBADEABB36B801B8
S113784EABBDEC8DEC5CDF9DEA8DED9DEBADEABB43
S113785E36BA01ABBDEC8DEC5CDF9DEA8DED9DEB94
S113786EADEABB7128E3FFADF6BDE8EAE8895CFB3F
S113787E99ADF4BDF6FAF6ABBDE88DE89DF68DE94B
S113788E6C809DF7ADF4BDE8DAE8ADF6780000AD96
S113789EF2BDF4EAF4895CFE99ADF0BDF6EAF68920
S11378AE5CFE9936B201ABBDF48DF46C209DF08D67
S11378BEF59DF1ADF0BBF6BF8CBAF6BF8EBAF6BF2E
S11378CE94BAF6BF96BA61EFC4C2C061CFD761EF66
S11378DEC1C361CF2008AF94BABDE8AF96BABDEA72
S11378EEADE8040100BDE8ADEA61D8A1040000BD15
S11378FEEAADE8BF94BAADEABF96BAAF90BABDF49A
S113790EAF92BABDF6ADF6440000ADF461F8440092
S113791E0061F8EC4A7900AF90BAB804AF92BAB8E5
S113792E06A80404FFFFBDF4A80661D8A104FFFF56
S113793EBDF6ADF4BF90BAADF6BF92BAAF8ABABD7A
S113794EF444000061F8EC727900AF94BABDF0AF64
S113795E96BABDF2ADF0B800ADF2B802ADF4BDF01A
S113796EDAF061DA100861EFC2C061CFD788069DE4
S113797EF44AF42061F3ECC379008F09BB9DF04AFD
S113798EF00461E8ECC979008DF49FBDBAC9F0002A
S113799E008DF44BF061E3ECBD7900A80406F0BD54
S11379AEF6DAF0FAF68B48BFBAA6F0EC9F7900F43B
S11379BEF0ECCC7900E4F0ECCC7900CDF002D77188
S11379CE70300271203002713BE2713AE671003080
S11379DE028F51FF5C019DF0D4F061F8ECDF790069
S11379EEF509BBD77170300271203002713BE27120
S11379FE3BE6F509BBD720068F51FF5C809DF08FC7
S1137A0E51FFD4F061F8EC8B7A005C089DF08F5135
S1137A1EFFD4F061F8EC5E7A005C409DF0D4F06126
S1137A2EE8ECD87B008F51FF5C049DF08F51FFD49E
S1137A3EF061F8EC4C7A00F6B804EC1E7B005C02A4
S1137A4E9DF0D4F061F8ECCB7B005120ECCD7B00A3
S1137A5E5C049DF08F51FF5C02D4F061F8EC7D7AEA
S1137A6E009DF0D4F061E8EC277C00EC5E7B009D79
S1137A7EF0D4F061E8ECD07B00EC5E7B005C109DF2
S1137A8EF28F51FFD4F261F8EC037B005C089DF099
S1137A9E8F51FF5C40D4F061F8ECD77A009DF0D49E
S1137AAEF061E8EC857B008F51FF5C049DF0D4F00F
S1137ABE61F8EC2F7C008F51FF5C029DF0D4F061D5
S1137ACEE8EC857B00ECB17B009DF0D4F061E8EC32
S1137ADE377C008F51FF5C049DF0D4F061F8ECB359
S1137AEE7C008F51FF5C029DF0D4F061E8EC377C92
S1137AFE00EC4A7C005C019DF0D4F061F8ECB37CA0
S1137B0E008F98BA4C0161E8ECAE7C00EC707C00FE
S1137B1EA80444040071FF61F3EC357B00FBF8FF0D
S1137B2E617904EC1E7B008FE0BA9DF18FDFBA9D64
S1137B3EF08DF14BF061C8EC6A7B008FE0BA9DF0DA
S1137B4E819FE0BACDF100ADF004E1BAECC27B0046
S1137B5ED59ABA61F8ECE57B00F59ABA8F07BB9D0E
S1137B6EF0D4F061E8ECD07B00E506BB7110300276
S1137B7EF509BBECB37C0051049F09BBF5BEBAF505
S1137B8EBDBAAF04BBBDF2DAF261DA8FBDBA9DF0B5
S1137B9ED4F061E8ECAE7B00E5BDBA8DF09FBFBAC0
S1137BAEF598BA8FBEBA9DF0819FBEBACDF100ADE5
S1137BBEF004BFBA168B9F50FFECB37C0051309F7C
S1137BCE9BBAFCCD7900ECB37C0051389F9BBAFC78
S1137BDEF27900ECB37C008FE0BA9DF08F50FFCDAC
S1137BEEF100DAF048E1BA8FE0BA9DF18FDFBA9D69
S1137BFEF08DF14BF061C8EC147C0071503002A092
S1137C0EE0BAECB37C00712830027130300271504E
S1137C1E3002E59ABAECB37C007120300271383030
S1137C2E0271503002ECB37C0051039F09BBF59CEA
S1137C3EBA71503002E598BAECB37C008F9CBA9DB1
S1137C4EF04AF01F61F3EC2F7C008F9CBA9DF081FB
S1137C5E9F9CBA8F50FFCDF100DAF0489DBAEC2FFD
S1137C6E7C008F9CBA9DF04AF01F61F3EC8D7C0072
S1137C7E8F9CBA9DF0CDF100DAF08DF2489DBA8F4B
S1137C8E9CBA9DF0309DBAB8008DF0705100B802C8
S1137C9EAF02BBBDF2DAF261DAF59CBAECB37C004A
S1137CAE8DF29F09BB1006D78F20FF6C039F20FF18
S1137CBE8F26FF6C039F26FF7140F000717830020F
S1137CCE713AE6713BE2713AEE713AEA7138310279
S1137CDECF32024BCF3302548F99BA9F34027100C4
S1137CEE3102711A52710A527140300271303002EF
S1137CFE71203002713BE6717030028F06FF5CFC1E
S1137D0E9F06FF8F26FF5CFC9F26FFD72004F509F4
S1137D1EBBE507BBF506BB5108980051029802FC5F
S1137D2E095B005107980051029802FC095B00FCA4
S1137D3EB67C001004D761EFC161CF88069DE98837
S1137D4E0A9DE88F06BB9DF04AF00161F8EC637D55
S1137D5E00FCB67C004AE82061F3EC3A7E008F0901
S1137D6EBB9DF0D4F061E8EC6C7D0051029F09BB21
S1137D7E880E9F07BB51FF9F9BBA8DF09FE0BA8D73
S1137D8EE89FDFBAC9F000008DE84BF061E3ECB474
S1137D9E7D00A80806F0BDF4DAF0FAF48B48E1BAD7
S1137DAEA6F0EC967D00F508BB8DE961019DE98F87
S1137DBE08BB6BE99F08BB717030027120300271F1
S1137DCE3BE2713BE68F06BB9DF04AF00161E8ECA5
S1137DDEE87D00F506BBECEC7D00711030028F08D7
S1137DEEBB9F50FF880CD161F8EC097E008F09BB54
S1137DFE9DF04AF00261F8ECFB7D008F9BBA9DF07A
S1137E0E4AF0FF61F8EC407E008F9BBA9DF04AF079
S1137E1E2061F8EC467E008F9BBA9DF04AF03061EB
S1137E2EE8EC4D7E00CDF003EC507E00E4F0EC5017
S1137E3E7E00F4F0EC507E00CDF002EC507E00CDCE
S1137E4EF00461EFC061CFD761CFC1C3C5C7C6C44B
S1137E5EC2C061FC61CFC1C3C5C7C6C4C2C061FC88
S1137E6E61CFC1C3C5C7C6C4C2C061FC61CFC1C3A3
S1137E7EC5C7C6C4C2C061FC61CFC1C3C5C7C6C431
S1137E8EC2C061FC61CFC1C3C5C761DFC1C3C5C771
S1137E9E61EFC761CFFC215A0061EFC661DFC6C432
S1137EAEC2C061CFC6C4C2C061FC61CFC1C3C5C765
S1137EBEC6C4C2C061FC61CFC1C3C5C761DFC1C343
S1137ECEC5C761EFC761CFFC345A0061EFC661DFED
S1137EDEC6C4C2C061CFC6C4C2C061FC61CFC1C337
S1137EEEC5C761DFC1C3C5C761EFC761CFFCD44B42
S1137EFE0061EFC661DFC6C4C2C061CFC6C4C2C0D2
S1137F0E61FC61CFC1C3C5C761DFC1C3C5C761EF22
S1137F1EC761CFFC5B4B0061EFC661DFC6C4C2C054
S1137F2E61CFC6C4C2C061FC61CFC1C3C5C761DF26
S1137F3EC1C3C5C761EFC761CFFC1B4C0061EFC65F
S1137F4E61DFC6C4C2C061CFC6C4C2C061FC61CF0A
S1137F5EC1C3C5C7C6C4C2C061FC61CFC1C3C5C756
S1137F6EC6C4C2C061FC61CFC1C3C5C761DFC1C392
S1137F7EC5C761EFC761CFFC6E4B0061EFC661DF11
S1137F8EC6C4C2C061CFC6C4C2C061FC61CFC1C386
S1137F9EC5C761DFC1C3C5C761EFC761CFFC354B30
S1137FAE0061EFC661DFC6C4C2C061CFC6C4C2C021
S1137FBE61FC61CFC1C3C5C761DFC1C3C5C761EF72
S1137FCEC761CFFC074C0061EFC661DFC6C4C2C0F7
S1137FDE61CFC6C4C2C061FC61CFC1C3C5C761DF76
S1137FEEC1C3C5C761EFC761CFFCA14B0061EFC62A
S1137FFE61DFC6C4C2C061CFC6C4C2C061FC61CF5A
S113800EC1C3C5C761DFC1C3C5C761EFC761CFFCBB
S113801E484B0061EFC661DFC6C4C2C061CFC6C49F
S113802EC2C061FC61CFC1C3C5C761DFC1C3C5C7CF
S113803E61EFC761CFFC114C0061EFC661DFC6C4AE
S113804EC2C061CFC6C4C2C061FC61CFC1C3C5C7C3
S113805E61DFC1C3C5C761EFC761CFFC047A00619C
S113806EEFC661DFC6C4C2C061CFC6C4C2C061FC64
S113807E61CFC1C3C5C7C6C4C2C061FC61CFC1C391
S113808EC5C761DFC1C3C5C761EFC761CFAF0ABB47
S113809E44000061F8ECB18000BDF2DAF261DAEC72
S11380AEB58000FCF95D0061EFC661DFC6C4C2C0D5
S11380BE61CFC6C4C2C061FC61CFC1C3C5C7C6C44B
S11380CEC2C061FC61CFC1C3C5C7C6C4C2C061FC16
S11380DE61CFC1C3C5C761DFC1C3C5C761EFC76186
S11380EECFFC475A0061EFC661DFC6C4C2C061CF80
S11380FEC6C4C2C061FC61CFC1C3C5C761DFC1C301
S113810EC5C761EFC761CFFCD25E0061EFC661DF08
S113811EC6C4C2C061CFC6C4C2C061FC61CFC1C3F4
S113812EC5C761DFC1C3C5C761EFC761CFFCDC78CA
S113813E0061EFC661DFC6C4C2C061CFC6C4C2C08F
S113814E61FC61CFC1C3C5C7C6C4C2C061FC61CFE7
S113815EC1C3C5C761DFC1C3C5C761EFC761CFFC6A
S113816E71750061EFC661DFC6C4C2C061CFC6C4FB
S113817EC2C061FC61CFC1C3C5C761DFC1C3C5C77E
S113818E61EFC761CFFC4B5A0061EFC661DFC6C415
S113819EC2C061CFC6C4C2C061FC61CFC1C3C5C772
S11381AE61DFC1C3C5C761EFC761CFFC715A0061FE
S11381BEEFC661DFC6C4C2C061CFC6C4C2C061FC13
S11381CE61CFC1C3C5C7C6C4C2C061FC61CFC1C340
S11381DEC5C7C6C4C2C061FC61CFC1C3C5C7C6C4CE
S11381EEC2C061FC61CFC1C3C5C7C6C4C2C061FCF5
S11381FE61CFC1C3C5C7C6C4C2C061FC61CFC1C310
S113820EC5C7C6C4C2C061FC61CFC1C3C5C7C6C49D
S113821EC2C061FC61CFC1C3C5C7C6C4C2C061FCC4
S113822E61CFC1C3C5C7C6C4C2C061FC61CFC1C3DF
S113823EC5C7C6C4C2C061FCCBF800FE410061CF05
S113824E3690AF341C0561DF30A204311E440000A9
S113825EDD0EB161CF11A9BBA5A5A7A761DFEFED17
S113826E61CF61CF3632B430000061DF30EA0831BD
S113827E1E440000DD0AB161CFBBA7A761DFEFF199
S113828E61CFFC8D5E0000FC50CE00300000C1C1F9
S113829EC1FCAA5E00C1FCCE5E0036A83434A834FC
S11382AE32FEFFEF1436A83434A834320200EF093C
S11382BE36A83434A83432FEFF1745DD1AAB44FF1A
S11382CEFFDD0F440000DD0AC1C3C5C761CAC6C4C1
S11382DEC2C0170316EFE2D720023032B42431B4F1
S11382EE44020061F3ECFA82001002D7C9F00000D8
S11382FEADF044000061F8ECF782003032B4B800FF
S113830EADF01261DAECF7820020043032B424327C
S113831EB4311FBDF0317A9DF2CDF300ADF206F00B
S113832E311FBDF044000061E8EC3E83001004D719
S113833EC9F20000ADF244000061F8EC3B8300305A
S113834E32B4B800ADF0B802ADF21261DAEC3B8390
S113835E0061EFC161CFD50CBB61E8ECAC8300AF1B
S113836E0EBBBDF030CC3424CA34311FBDE8B6E8A0
S113837EADF046E861C8ECA58300A6F0ADF0BF0EE3
S113838EBB0104CA3416AB1261DAAF0EBBBDF046A4
S113839EE861D8EC888300FCE68200E50CBB61EF53
S11383AEC061CFD7D72002AF90AF44000061F8EC84
S11383BEDA8300C9F00000ADF044000061F8ECDA95
S11383CE83003090AFB800ADF01261DAFC17830071
S11383DE1002D7D761EFC161CFAFC634BDF044FFF1
S11383EEFF61F8EC118400C9E8C434ADF01261DA0F
S11383FEB6E8B6E8FAE8AC02BDF044FFFF61E8EC7B
S113840EF9830061EFC061CFD7D72002A806BDF073
S113841E1230CE32780000ADF0B800FCEF8A0010B6
S113842E02D761EFC161CF2002A808BDE81230CE99
S113843E32780000ADE8B800FCEF8A00ADE8B80071
S113844EFCB39200100261EFC061CFD761EFC1C3DC
S113845EC561CF2010A828BDE8A81ABDF2A6F2A6C1
S113846EF2FAF2ABBDECA820BDF4A6F4A6F4FAF42D
S113847EABBDF0ADEC46F061F8ECFA8400FAEC8B8F
S113848E9DEA4AEA2A61F8ECB08400ADECB800AD7E
S113849EF0B802FCC8C200ADF044000061F8ECFA7A
S11384AE8400A82616A8224761F8EC538500A81A62
S11384BE04040016ABBDF016ABBDF2ADF0B800A8C7
S11384CE1CB802A81EB804A820B806A822B808A88A
S11384DE24B80AA826B80CADE8B80EFAF2AC0E16FB
S11384EE61FA101061EFC4C2C061CFD7A822DAE8D6
S11384FE780000A81E780200A81C44000071FF61D9
S113850ED8EC3C8500A81C16A82207BDF2C9F001C0
S113851E00A82646F261F8ECA18500DAE8ADF07801
S113852E0600F4F0101061EFC4C2C061CFD7A81CCE
S113853E44FEFF61F8EC958500F4F0101061EFC471
S113854EC2C061CFD7A824BDF2A6F2A6F2FAF2AB4E
S113855EBDF0ADEC46F061F8EC8885004AEA2A617C
S113856EF8ECBC8400B800ADF0B802FCC8C200AD93
S113857EF044000061E8ECBC8400A81EDAE878043C
S113858E00F4F0EC498500DAE8E6780600F4F0EC45
S113859EF08400C9F00600EC29850061EFC1C3C563
S11385AE61CF200AA818BDECA81ABDEAA81CBDE824
S11385BE46EC61F8ECF88500A81404040016ABBD73
S11385CEF016ABBDF4ADF0B800A816B802ADECB819
S11385DE04ADEAB806ADE8B808FAF4AC101661FAC0
S11385EE100A61EFC4C2C061CFD7A814BDF2A6F2BF
S11385FEA6F2FAF2ABBDF0FAEAAC02BDF4ADF04667
S113860EF461F8EC36860014894C2A61F8ECC685C0
S113861E00ADF0B800ADF4B802FCC8C200ADF04431
S113862E000061E8ECC68500C9F00600ECEE85009A
S113863E61EFC1C3C561CF2008A812BDE8A814BD5F
S113864EEAA816BDECADE8B800ADEAB802ADECB8D8
S113865E04A818B806FC318B00D4F061E8EC9086BF
S113866E00FAE8AC04BDF016ABBDF2ADF0B800AD47
S113867EEAB802ADECB804A818B806FAF2AC0C16B7
S113868E61FA100861EFC4C2C061CFD761EFC16156
S113869ECF2002A80ABDF0A80844010061F3ECF54E
S11386AE8600ADF004ECFF16ABBDF244000061F899
S11386BEECE08600ADF0040E00BDE8B800ADF21299
S11386CE61DAADE8B800FC55A800100261EFC06194
S11386DECFD7ADF0040E00BDE8B800FC55A80010CD
S11386EE0261EFC061CFD7ADF004F0FF16ABB80056
S11386FEFCC9920061EFC161CF2002A808BDF0044D
S113870EDAFF12E6780000A80ABDF2ADF004DCFF31
S113871E12ADF2780000A80CBDF2ADF004DEFF122B
S113872EADF2780000AFA4AFBDF2ADF004E0FF12DD
S113873EADF2780000AFA6AFBDF2ADF004E2FF12C9
S113874EADF2780000ADF004F2FF12F1480000AD76
